{
	"contracts/Structs.sol": {
		"Structs": {
			"abi": [
				{
					"inputs": [
						{
							"internalType": "string",
							"name": "text",
							"type": "string"
						},
						{
							"internalType": "bool",
							"name": "completed",
							"type": "bool"
						}
					],
					"name": "create",
					"outputs": [],
					"stateMutability": "nonpayable",
					"type": "function"
				},
				{
					"inputs": [
						{
							"internalType": "uint256",
							"name": "index",
							"type": "uint256"
						}
					],
					"name": "get",
					"outputs": [
						{
							"components": [
								{
									"internalType": "string",
									"name": "text",
									"type": "string"
								},
								{
									"internalType": "bool",
									"name": "completed",
									"type": "bool"
								}
							],
							"internalType": "struct Structs.Obj",
							"name": "",
							"type": "tuple"
						}
					],
					"stateMutability": "view",
					"type": "function"
				},
				{
					"inputs": [
						{
							"internalType": "uint256",
							"name": "",
							"type": "uint256"
						}
					],
					"name": "objList",
					"outputs": [
						{
							"internalType": "string",
							"name": "text",
							"type": "string"
						},
						{
							"internalType": "bool",
							"name": "completed",
							"type": "bool"
						}
					],
					"stateMutability": "view",
					"type": "function"
				},
				{
					"inputs": [
						{
							"internalType": "uint256",
							"name": "index",
							"type": "uint256"
						},
						{
							"internalType": "string",
							"name": "text",
							"type": "string"
						}
					],
					"name": "update",
					"outputs": [],
					"stateMutability": "nonpayable",
					"type": "function"
				}
			],
			"devdoc": {
				"kind": "dev",
				"methods": {},
				"version": 1
			},
			"evm": {
				"assembly": "    /* \"contracts/Structs.sol\":62:572  contract Structs {... */\n  mstore(0x40, 0x80)\n  callvalue\n  dup1\n  iszero\n  tag_1\n  jumpi\n  0x00\n  dup1\n  revert\ntag_1:\n  pop\n  dataSize(sub_0)\n  dup1\n  dataOffset(sub_0)\n  0x00\n  codecopy\n  0x00\n  return\nstop\n\nsub_0: assembly {\n        /* \"contracts/Structs.sol\":62:572  contract Structs {... */\n      mstore(0x40, 0x80)\n      callvalue\n      dup1\n      iszero\n      tag_1\n      jumpi\n      0x00\n      dup1\n      revert\n    tag_1:\n      pop\n      jumpi(tag_2, lt(calldatasize, 0x04))\n      shr(0xe0, calldataload(0x00))\n      dup1\n      0x208df5a3\n      eq\n      tag_3\n      jumpi\n      dup1\n      0x9507d39a\n      eq\n      tag_4\n      jumpi\n      dup1\n      0xcc10e401\n      eq\n      tag_5\n      jumpi\n      dup1\n      0xf745630f\n      eq\n      tag_6\n      jumpi\n    tag_2:\n      0x00\n      dup1\n      revert\n        /* \"contracts/Structs.sol\":154:174  Obj[] public objList */\n    tag_3:\n      tag_7\n      0x04\n      dup1\n      calldatasize\n      sub\n      dup2\n      add\n      swap1\n      tag_8\n      swap2\n      swap1\n      tag_9\n      jump\t// in\n    tag_8:\n      tag_10\n      jump\t// in\n    tag_7:\n      mload(0x40)\n      tag_11\n      swap3\n      swap2\n      swap1\n      tag_12\n      jump\t// in\n    tag_11:\n      mload(0x40)\n      dup1\n      swap2\n      sub\n      swap1\n      return\n        /* \"contracts/Structs.sol\":299:398  function get(uint256 index) public view returns (Obj memory) {... */\n    tag_4:\n      tag_13\n      0x04\n      dup1\n      calldatasize\n      sub\n      dup2\n      add\n      swap1\n      tag_14\n      swap2\n      swap1\n      tag_9\n      jump\t// in\n    tag_14:\n      tag_15\n      jump\t// in\n    tag_13:\n      mload(0x40)\n      tag_16\n      swap2\n      swap1\n      tag_17\n      jump\t// in\n    tag_16:\n      mload(0x40)\n      dup1\n      swap2\n      sub\n      swap1\n      return\n        /* \"contracts/Structs.sol\":181:293  function create(string calldata text, bool completed) public {... */\n    tag_5:\n      tag_18\n      0x04\n      dup1\n      calldatasize\n      sub\n      dup2\n      add\n      swap1\n      tag_19\n      swap2\n      swap1\n      tag_20\n      jump\t// in\n    tag_19:\n      tag_21\n      jump\t// in\n    tag_18:\n      stop\n        /* \"contracts/Structs.sol\":404:570  function update(uint256 index, string calldata text) public {... */\n    tag_6:\n      tag_22\n      0x04\n      dup1\n      calldatasize\n      sub\n      dup2\n      add\n      swap1\n      tag_23\n      swap2\n      swap1\n      tag_24\n      jump\t// in\n    tag_23:\n      tag_25\n      jump\t// in\n    tag_22:\n      stop\n        /* \"contracts/Structs.sol\":154:174  Obj[] public objList */\n    tag_10:\n      0x00\n      dup2\n      dup2\n      sload\n      dup2\n      lt\n      tag_26\n      jumpi\n      0x00\n      dup1\n      revert\n    tag_26:\n      swap1\n      0x00\n      mstore\n      keccak256(0x00, 0x20)\n      swap1\n      0x02\n      mul\n      add\n      0x00\n      swap2\n      pop\n      swap1\n      pop\n      dup1\n      0x00\n      add\n      dup1\n      sload\n      tag_28\n      swap1\n      tag_29\n      jump\t// in\n    tag_28:\n      dup1\n      0x1f\n      add\n      0x20\n      dup1\n      swap2\n      div\n      mul\n      0x20\n      add\n      mload(0x40)\n      swap1\n      dup2\n      add\n      0x40\n      mstore\n      dup1\n      swap3\n      swap2\n      swap1\n      dup2\n      dup2\n      mstore\n      0x20\n      add\n      dup3\n      dup1\n      sload\n      tag_30\n      swap1\n      tag_29\n      jump\t// in\n    tag_30:\n      dup1\n      iszero\n      tag_31\n      jumpi\n      dup1\n      0x1f\n      lt\n      tag_32\n      jumpi\n      0x0100\n      dup1\n      dup4\n      sload\n      div\n      mul\n      dup4\n      mstore\n      swap2\n      0x20\n      add\n      swap2\n      jump(tag_31)\n    tag_32:\n      dup3\n      add\n      swap2\n      swap1\n      0x00\n      mstore\n      keccak256(0x00, 0x20)\n      swap1\n    tag_33:\n      dup2\n      sload\n      dup2\n      mstore\n      swap1\n      0x01\n      add\n      swap1\n      0x20\n      add\n      dup1\n      dup4\n      gt\n      tag_33\n      jumpi\n      dup3\n      swap1\n      sub\n      0x1f\n      and\n      dup3\n      add\n      swap2\n    tag_31:\n      pop\n      pop\n      pop\n      pop\n      pop\n      swap1\n      dup1\n      0x01\n      add\n      0x00\n      swap1\n      sload\n      swap1\n      0x0100\n      exp\n      swap1\n      div\n      0xff\n      and\n      swap1\n      pop\n      dup3\n      jump\t// out\n        /* \"contracts/Structs.sol\":299:398  function get(uint256 index) public view returns (Obj memory) {... */\n    tag_15:\n        /* \"contracts/Structs.sol\":348:358  Obj memory */\n      tag_34\n      tag_35\n      jump\t// in\n    tag_34:\n        /* \"contracts/Structs.sol\":377:384  objList */\n      0x00\n        /* \"contracts/Structs.sol\":385:390  index */\n      dup3\n        /* \"contracts/Structs.sol\":377:391  objList[index] */\n      dup2\n      sload\n      dup2\n      lt\n      tag_37\n      jumpi\n      tag_38\n      tag_39\n      jump\t// in\n    tag_38:\n    tag_37:\n      swap1\n      0x00\n      mstore\n      keccak256(0x00, 0x20)\n      swap1\n      0x02\n      mul\n      add\n        /* \"contracts/Structs.sol\":370:391  return objList[index] */\n      mload(0x40)\n      dup1\n      0x40\n      add\n      0x40\n      mstore\n      swap1\n      dup2\n      0x00\n      dup3\n      add\n      dup1\n      sload\n      tag_41\n      swap1\n      tag_29\n      jump\t// in\n    tag_41:\n      dup1\n      0x1f\n      add\n      0x20\n      dup1\n      swap2\n      div\n      mul\n      0x20\n      add\n      mload(0x40)\n      swap1\n      dup2\n      add\n      0x40\n      mstore\n      dup1\n      swap3\n      swap2\n      swap1\n      dup2\n      dup2\n      mstore\n      0x20\n      add\n      dup3\n      dup1\n      sload\n      tag_42\n      swap1\n      tag_29\n      jump\t// in\n    tag_42:\n      dup1\n      iszero\n      tag_43\n      jumpi\n      dup1\n      0x1f\n      lt\n      tag_44\n      jumpi\n      0x0100\n      dup1\n      dup4\n      sload\n      div\n      mul\n      dup4\n      mstore\n      swap2\n      0x20\n      add\n      swap2\n      jump(tag_43)\n    tag_44:\n      dup3\n      add\n      swap2\n      swap1\n      0x00\n      mstore\n      keccak256(0x00, 0x20)\n      swap1\n    tag_45:\n      dup2\n      sload\n      dup2\n      mstore\n      swap1\n      0x01\n      add\n      swap1\n      0x20\n      add\n      dup1\n      dup4\n      gt\n      tag_45\n      jumpi\n      dup3\n      swap1\n      sub\n      0x1f\n      and\n      dup3\n      add\n      swap2\n    tag_43:\n      pop\n      pop\n      pop\n      pop\n      pop\n      dup2\n      mstore\n      0x20\n      add\n      0x01\n      dup3\n      add\n      0x00\n      swap1\n      sload\n      swap1\n      0x0100\n      exp\n      swap1\n      div\n      0xff\n      and\n      iszero\n      iszero\n      iszero\n      iszero\n      dup2\n      mstore\n      pop\n      pop\n      swap1\n      pop\n        /* \"contracts/Structs.sol\":299:398  function get(uint256 index) public view returns (Obj memory) {... */\n      swap2\n      swap1\n      pop\n      jump\t// out\n        /* \"contracts/Structs.sol\":181:293  function create(string calldata text, bool completed) public {... */\n    tag_21:\n        /* \"contracts/Structs.sol\":252:259  objList */\n      0x00\n        /* \"contracts/Structs.sol\":265:285  Obj(text, completed) */\n      mload(0x40)\n      dup1\n      0x40\n      add\n      0x40\n      mstore\n      dup1\n        /* \"contracts/Structs.sol\":269:273  text */\n      dup6\n      dup6\n        /* \"contracts/Structs.sol\":265:285  Obj(text, completed) */\n      dup1\n      dup1\n      0x1f\n      add\n      0x20\n      dup1\n      swap2\n      div\n      mul\n      0x20\n      add\n      mload(0x40)\n      swap1\n      dup2\n      add\n      0x40\n      mstore\n      dup1\n      swap4\n      swap3\n      swap2\n      swap1\n      dup2\n      dup2\n      mstore\n      0x20\n      add\n      dup4\n      dup4\n      dup1\n      dup3\n      dup5\n      calldatacopy\n      0x00\n      dup2\n      dup5\n      add\n      mstore\n      not(0x1f)\n      0x1f\n      dup3\n      add\n      and\n      swap1\n      pop\n      dup1\n      dup4\n      add\n      swap3\n      pop\n      pop\n      pop\n      pop\n      pop\n      pop\n      pop\n      dup2\n      mstore\n      0x20\n      add\n        /* \"contracts/Structs.sol\":275:284  completed */\n      dup4\n        /* \"contracts/Structs.sol\":265:285  Obj(text, completed) */\n      iszero\n      iszero\n      dup2\n      mstore\n      pop\n        /* \"contracts/Structs.sol\":252:286  objList.push(Obj(text, completed)) */\n      swap1\n      dup1\n      0x01\n      dup2\n      sload\n      add\n      dup1\n      dup3\n      sstore\n      dup1\n      swap2\n      pop\n      pop\n      0x01\n      swap1\n      sub\n      swap1\n      0x00\n      mstore\n      keccak256(0x00, 0x20)\n      swap1\n      0x02\n      mul\n      add\n      0x00\n      swap1\n      swap2\n      swap1\n      swap2\n      swap1\n      swap2\n      pop\n      0x00\n      dup3\n      add\n      mload\n      dup2\n      0x00\n      add\n      swap1\n      dup2\n      tag_48\n      swap2\n      swap1\n      tag_49\n      jump\t// in\n    tag_48:\n      pop\n      0x20\n      dup3\n      add\n      mload\n      dup2\n      0x01\n      add\n      exp(0x0100, 0x00)\n      dup2\n      sload\n      dup2\n      0xff\n      mul\n      not\n      and\n      swap1\n      dup4\n      iszero\n      iszero\n      mul\n      or\n      swap1\n      sstore\n      pop\n      pop\n      pop\n        /* \"contracts/Structs.sol\":181:293  function create(string calldata text, bool completed) public {... */\n      pop\n      pop\n      pop\n      jump\t// out\n        /* \"contracts/Structs.sol\":404:570  function update(uint256 index, string calldata text) public {... */\n    tag_25:\n        /* \"contracts/Structs.sol\":474:487  Obj storage o */\n      0x00\n        /* \"contracts/Structs.sol\":490:497  objList */\n      dup1\n        /* \"contracts/Structs.sol\":498:503  index */\n      dup5\n        /* \"contracts/Structs.sol\":490:504  objList[index] */\n      dup2\n      sload\n      dup2\n      lt\n      tag_51\n      jumpi\n      tag_52\n      tag_39\n      jump\t// in\n    tag_52:\n    tag_51:\n      swap1\n      0x00\n      mstore\n      keccak256(0x00, 0x20)\n      swap1\n      0x02\n      mul\n      add\n        /* \"contracts/Structs.sol\":474:504  Obj storage o = objList[index] */\n      swap1\n      pop\n        /* \"contracts/Structs.sol\":529:530  o */\n      dup1\n        /* \"contracts/Structs.sol\":529:540  o.completed */\n      0x01\n      add\n      0x00\n      swap1\n      sload\n      swap1\n      0x0100\n      exp\n      swap1\n      div\n      0xff\n      and\n        /* \"contracts/Structs.sol\":528:540  !o.completed */\n      iszero\n        /* \"contracts/Structs.sol\":514:515  o */\n      dup2\n        /* \"contracts/Structs.sol\":514:525  o.completed */\n      0x01\n      add\n      0x00\n        /* \"contracts/Structs.sol\":514:540  o.completed = !o.completed */\n      0x0100\n      exp\n      dup2\n      sload\n      dup2\n      0xff\n      mul\n      not\n      and\n      swap1\n      dup4\n      iszero\n      iszero\n      mul\n      or\n      swap1\n      sstore\n      pop\n        /* \"contracts/Structs.sol\":559:563  text */\n      dup3\n      dup3\n        /* \"contracts/Structs.sol\":550:551  o */\n      dup3\n        /* \"contracts/Structs.sol\":550:556  o.text */\n      0x00\n      add\n        /* \"contracts/Structs.sol\":550:563  o.text = text */\n      swap2\n      dup3\n      tag_54\n      swap3\n      swap2\n      swap1\n      tag_55\n      jump\t// in\n    tag_54:\n      pop\n        /* \"contracts/Structs.sol\":464:570  {... */\n      pop\n        /* \"contracts/Structs.sol\":404:570  function update(uint256 index, string calldata text) public {... */\n      pop\n      pop\n      pop\n      jump\t// out\n    tag_35:\n      mload(0x40)\n      dup1\n      0x40\n      add\n      0x40\n      mstore\n      dup1\n      0x60\n      dup2\n      mstore\n      0x20\n      add\n      iszero(iszero(0x00))\n      dup2\n      mstore\n      pop\n      swap1\n      jump\t// out\n        /* \"#utility.yul\":88:205   */\n    tag_57:\n        /* \"#utility.yul\":197:198   */\n      0x00\n        /* \"#utility.yul\":194:195   */\n      dup1\n        /* \"#utility.yul\":187:199   */\n      revert\n        /* \"#utility.yul\":211:328   */\n    tag_58:\n        /* \"#utility.yul\":320:321   */\n      0x00\n        /* \"#utility.yul\":317:318   */\n      dup1\n        /* \"#utility.yul\":310:322   */\n      revert\n        /* \"#utility.yul\":334:411   */\n    tag_59:\n        /* \"#utility.yul\":371:378   */\n      0x00\n        /* \"#utility.yul\":400:405   */\n      dup2\n        /* \"#utility.yul\":389:405   */\n      swap1\n      pop\n        /* \"#utility.yul\":334:411   */\n      swap2\n      swap1\n      pop\n      jump\t// out\n        /* \"#utility.yul\":417:539   */\n    tag_60:\n        /* \"#utility.yul\":490:514   */\n      tag_103\n        /* \"#utility.yul\":508:513   */\n      dup2\n        /* \"#utility.yul\":490:514   */\n      tag_59\n      jump\t// in\n    tag_103:\n        /* \"#utility.yul\":483:488   */\n      dup2\n        /* \"#utility.yul\":480:515   */\n      eq\n        /* \"#utility.yul\":470:533   */\n      tag_104\n      jumpi\n        /* \"#utility.yul\":529:530   */\n      0x00\n        /* \"#utility.yul\":526:527   */\n      dup1\n        /* \"#utility.yul\":519:531   */\n      revert\n        /* \"#utility.yul\":470:533   */\n    tag_104:\n        /* \"#utility.yul\":417:539   */\n      pop\n      jump\t// out\n        /* \"#utility.yul\":545:684   */\n    tag_61:\n        /* \"#utility.yul\":591:596   */\n      0x00\n        /* \"#utility.yul\":629:635   */\n      dup2\n        /* \"#utility.yul\":616:636   */\n      calldataload\n        /* \"#utility.yul\":607:636   */\n      swap1\n      pop\n        /* \"#utility.yul\":645:678   */\n      tag_106\n        /* \"#utility.yul\":672:677   */\n      dup2\n        /* \"#utility.yul\":645:678   */\n      tag_60\n      jump\t// in\n    tag_106:\n        /* \"#utility.yul\":545:684   */\n      swap3\n      swap2\n      pop\n      pop\n      jump\t// out\n        /* \"#utility.yul\":690:1019   */\n    tag_9:\n        /* \"#utility.yul\":749:755   */\n      0x00\n        /* \"#utility.yul\":798:800   */\n      0x20\n        /* \"#utility.yul\":786:795   */\n      dup3\n        /* \"#utility.yul\":777:784   */\n      dup5\n        /* \"#utility.yul\":773:796   */\n      sub\n        /* \"#utility.yul\":769:801   */\n      slt\n        /* \"#utility.yul\":766:885   */\n      iszero\n      tag_108\n      jumpi\n        /* \"#utility.yul\":804:883   */\n      tag_109\n      tag_57\n      jump\t// in\n    tag_109:\n        /* \"#utility.yul\":766:885   */\n    tag_108:\n        /* \"#utility.yul\":924:925   */\n      0x00\n        /* \"#utility.yul\":949:1002   */\n      tag_110\n        /* \"#utility.yul\":994:1001   */\n      dup5\n        /* \"#utility.yul\":985:991   */\n      dup3\n        /* \"#utility.yul\":974:983   */\n      dup6\n        /* \"#utility.yul\":970:992   */\n      add\n        /* \"#utility.yul\":949:1002   */\n      tag_61\n      jump\t// in\n    tag_110:\n        /* \"#utility.yul\":939:1002   */\n      swap2\n      pop\n        /* \"#utility.yul\":895:1012   */\n      pop\n        /* \"#utility.yul\":690:1019   */\n      swap3\n      swap2\n      pop\n      pop\n      jump\t// out\n        /* \"#utility.yul\":1025:1124   */\n    tag_62:\n        /* \"#utility.yul\":1077:1083   */\n      0x00\n        /* \"#utility.yul\":1111:1116   */\n      dup2\n        /* \"#utility.yul\":1105:1117   */\n      mload\n        /* \"#utility.yul\":1095:1117   */\n      swap1\n      pop\n        /* \"#utility.yul\":1025:1124   */\n      swap2\n      swap1\n      pop\n      jump\t// out\n        /* \"#utility.yul\":1130:1299   */\n    tag_63:\n        /* \"#utility.yul\":1214:1225   */\n      0x00\n        /* \"#utility.yul\":1248:1254   */\n      dup3\n        /* \"#utility.yul\":1243:1246   */\n      dup3\n        /* \"#utility.yul\":1236:1255   */\n      mstore\n        /* \"#utility.yul\":1288:1292   */\n      0x20\n        /* \"#utility.yul\":1283:1286   */\n      dup3\n        /* \"#utility.yul\":1279:1293   */\n      add\n        /* \"#utility.yul\":1264:1293   */\n      swap1\n      pop\n        /* \"#utility.yul\":1130:1299   */\n      swap3\n      swap2\n      pop\n      pop\n      jump\t// out\n        /* \"#utility.yul\":1305:1444   */\n    tag_64:\n        /* \"#utility.yul\":1394:1400   */\n      dup3\n        /* \"#utility.yul\":1389:1392   */\n      dup2\n        /* \"#utility.yul\":1384:1387   */\n      dup4\n        /* \"#utility.yul\":1378:1401   */\n      mcopy\n        /* \"#utility.yul\":1435:1436   */\n      0x00\n        /* \"#utility.yul\":1426:1432   */\n      dup4\n        /* \"#utility.yul\":1421:1424   */\n      dup4\n        /* \"#utility.yul\":1417:1433   */\n      add\n        /* \"#utility.yul\":1410:1437   */\n      mstore\n        /* \"#utility.yul\":1305:1444   */\n      pop\n      pop\n      pop\n      jump\t// out\n        /* \"#utility.yul\":1450:1552   */\n    tag_65:\n        /* \"#utility.yul\":1491:1497   */\n      0x00\n        /* \"#utility.yul\":1542:1544   */\n      0x1f\n        /* \"#utility.yul\":1538:1545   */\n      not\n        /* \"#utility.yul\":1533:1535   */\n      0x1f\n        /* \"#utility.yul\":1526:1531   */\n      dup4\n        /* \"#utility.yul\":1522:1536   */\n      add\n        /* \"#utility.yul\":1518:1546   */\n      and\n        /* \"#utility.yul\":1508:1546   */\n      swap1\n      pop\n        /* \"#utility.yul\":1450:1552   */\n      swap2\n      swap1\n      pop\n      jump\t// out\n        /* \"#utility.yul\":1558:1935   */\n    tag_66:\n        /* \"#utility.yul\":1646:1649   */\n      0x00\n        /* \"#utility.yul\":1674:1713   */\n      tag_116\n        /* \"#utility.yul\":1707:1712   */\n      dup3\n        /* \"#utility.yul\":1674:1713   */\n      tag_62\n      jump\t// in\n    tag_116:\n        /* \"#utility.yul\":1729:1800   */\n      tag_117\n        /* \"#utility.yul\":1793:1799   */\n      dup2\n        /* \"#utility.yul\":1788:1791   */\n      dup6\n        /* \"#utility.yul\":1729:1800   */\n      tag_63\n      jump\t// in\n    tag_117:\n        /* \"#utility.yul\":1722:1800   */\n      swap4\n      pop\n        /* \"#utility.yul\":1809:1874   */\n      tag_118\n        /* \"#utility.yul\":1867:1873   */\n      dup2\n        /* \"#utility.yul\":1862:1865   */\n      dup6\n        /* \"#utility.yul\":1855:1859   */\n      0x20\n        /* \"#utility.yul\":1848:1853   */\n      dup7\n        /* \"#utility.yul\":1844:1860   */\n      add\n        /* \"#utility.yul\":1809:1874   */\n      tag_64\n      jump\t// in\n    tag_118:\n        /* \"#utility.yul\":1899:1928   */\n      tag_119\n        /* \"#utility.yul\":1921:1927   */\n      dup2\n        /* \"#utility.yul\":1899:1928   */\n      tag_65\n      jump\t// in\n    tag_119:\n        /* \"#utility.yul\":1894:1897   */\n      dup5\n        /* \"#utility.yul\":1890:1929   */\n      add\n        /* \"#utility.yul\":1883:1929   */\n      swap2\n      pop\n        /* \"#utility.yul\":1650:1935   */\n      pop\n        /* \"#utility.yul\":1558:1935   */\n      swap3\n      swap2\n      pop\n      pop\n      jump\t// out\n        /* \"#utility.yul\":1941:2031   */\n    tag_67:\n        /* \"#utility.yul\":1975:1982   */\n      0x00\n        /* \"#utility.yul\":2018:2023   */\n      dup2\n        /* \"#utility.yul\":2011:2024   */\n      iszero\n        /* \"#utility.yul\":2004:2025   */\n      iszero\n        /* \"#utility.yul\":1993:2025   */\n      swap1\n      pop\n        /* \"#utility.yul\":1941:2031   */\n      swap2\n      swap1\n      pop\n      jump\t// out\n        /* \"#utility.yul\":2037:2146   */\n    tag_68:\n        /* \"#utility.yul\":2118:2139   */\n      tag_122\n        /* \"#utility.yul\":2133:2138   */\n      dup2\n        /* \"#utility.yul\":2118:2139   */\n      tag_67\n      jump\t// in\n    tag_122:\n        /* \"#utility.yul\":2113:2116   */\n      dup3\n        /* \"#utility.yul\":2106:2140   */\n      mstore\n        /* \"#utility.yul\":2037:2146   */\n      pop\n      pop\n      jump\t// out\n        /* \"#utility.yul\":2152:2563   */\n    tag_12:\n        /* \"#utility.yul\":2287:2291   */\n      0x00\n        /* \"#utility.yul\":2325:2327   */\n      0x40\n        /* \"#utility.yul\":2314:2323   */\n      dup3\n        /* \"#utility.yul\":2310:2328   */\n      add\n        /* \"#utility.yul\":2302:2328   */\n      swap1\n      pop\n        /* \"#utility.yul\":2374:2383   */\n      dup2\n        /* \"#utility.yul\":2368:2372   */\n      dup2\n        /* \"#utility.yul\":2364:2384   */\n      sub\n        /* \"#utility.yul\":2360:2361   */\n      0x00\n        /* \"#utility.yul\":2349:2358   */\n      dup4\n        /* \"#utility.yul\":2345:2362   */\n      add\n        /* \"#utility.yul\":2338:2385   */\n      mstore\n        /* \"#utility.yul\":2402:2480   */\n      tag_124\n        /* \"#utility.yul\":2475:2479   */\n      dup2\n        /* \"#utility.yul\":2466:2472   */\n      dup6\n        /* \"#utility.yul\":2402:2480   */\n      tag_66\n      jump\t// in\n    tag_124:\n        /* \"#utility.yul\":2394:2480   */\n      swap1\n      pop\n        /* \"#utility.yul\":2490:2556   */\n      tag_125\n        /* \"#utility.yul\":2552:2554   */\n      0x20\n        /* \"#utility.yul\":2541:2550   */\n      dup4\n        /* \"#utility.yul\":2537:2555   */\n      add\n        /* \"#utility.yul\":2528:2534   */\n      dup5\n        /* \"#utility.yul\":2490:2556   */\n      tag_68\n      jump\t// in\n    tag_125:\n        /* \"#utility.yul\":2152:2563   */\n      swap4\n      swap3\n      pop\n      pop\n      pop\n      jump\t// out\n        /* \"#utility.yul\":2569:2728   */\n    tag_69:\n        /* \"#utility.yul\":2643:2654   */\n      0x00\n        /* \"#utility.yul\":2677:2683   */\n      dup3\n        /* \"#utility.yul\":2672:2675   */\n      dup3\n        /* \"#utility.yul\":2665:2684   */\n      mstore\n        /* \"#utility.yul\":2717:2721   */\n      0x20\n        /* \"#utility.yul\":2712:2715   */\n      dup3\n        /* \"#utility.yul\":2708:2722   */\n      add\n        /* \"#utility.yul\":2693:2722   */\n      swap1\n      pop\n        /* \"#utility.yul\":2569:2728   */\n      swap3\n      swap2\n      pop\n      pop\n      jump\t// out\n        /* \"#utility.yul\":2734:3091   */\n    tag_70:\n        /* \"#utility.yul\":2812:2815   */\n      0x00\n        /* \"#utility.yul\":2840:2879   */\n      tag_128\n        /* \"#utility.yul\":2873:2878   */\n      dup3\n        /* \"#utility.yul\":2840:2879   */\n      tag_62\n      jump\t// in\n    tag_128:\n        /* \"#utility.yul\":2895:2956   */\n      tag_129\n        /* \"#utility.yul\":2949:2955   */\n      dup2\n        /* \"#utility.yul\":2944:2947   */\n      dup6\n        /* \"#utility.yul\":2895:2956   */\n      tag_69\n      jump\t// in\n    tag_129:\n        /* \"#utility.yul\":2888:2956   */\n      swap4\n      pop\n        /* \"#utility.yul\":2965:3030   */\n      tag_130\n        /* \"#utility.yul\":3023:3029   */\n      dup2\n        /* \"#utility.yul\":3018:3021   */\n      dup6\n        /* \"#utility.yul\":3011:3015   */\n      0x20\n        /* \"#utility.yul\":3004:3009   */\n      dup7\n        /* \"#utility.yul\":3000:3016   */\n      add\n        /* \"#utility.yul\":2965:3030   */\n      tag_64\n      jump\t// in\n    tag_130:\n        /* \"#utility.yul\":3055:3084   */\n      tag_131\n        /* \"#utility.yul\":3077:3083   */\n      dup2\n        /* \"#utility.yul\":3055:3084   */\n      tag_65\n      jump\t// in\n    tag_131:\n        /* \"#utility.yul\":3050:3053   */\n      dup5\n        /* \"#utility.yul\":3046:3085   */\n      add\n        /* \"#utility.yul\":3039:3085   */\n      swap2\n      pop\n        /* \"#utility.yul\":2816:3091   */\n      pop\n        /* \"#utility.yul\":2734:3091   */\n      swap3\n      swap2\n      pop\n      pop\n      jump\t// out\n        /* \"#utility.yul\":3097:3196   */\n    tag_71:\n        /* \"#utility.yul\":3168:3189   */\n      tag_133\n        /* \"#utility.yul\":3183:3188   */\n      dup2\n        /* \"#utility.yul\":3168:3189   */\n      tag_67\n      jump\t// in\n    tag_133:\n        /* \"#utility.yul\":3163:3166   */\n      dup3\n        /* \"#utility.yul\":3156:3190   */\n      mstore\n        /* \"#utility.yul\":3097:3196   */\n      pop\n      pop\n      jump\t// out\n        /* \"#utility.yul\":3250:3841   */\n    tag_72:\n        /* \"#utility.yul\":3355:3358   */\n      0x00\n        /* \"#utility.yul\":3391:3395   */\n      0x40\n        /* \"#utility.yul\":3386:3389   */\n      dup4\n        /* \"#utility.yul\":3382:3396   */\n      add\n        /* \"#utility.yul\":3478:3482   */\n      0x00\n        /* \"#utility.yul\":3471:3476   */\n      dup4\n        /* \"#utility.yul\":3467:3483   */\n      add\n        /* \"#utility.yul\":3461:3484   */\n      mload\n        /* \"#utility.yul\":3531:3534   */\n      dup5\n        /* \"#utility.yul\":3525:3529   */\n      dup3\n        /* \"#utility.yul\":3521:3535   */\n      sub\n        /* \"#utility.yul\":3514:3518   */\n      0x00\n        /* \"#utility.yul\":3509:3512   */\n      dup7\n        /* \"#utility.yul\":3505:3519   */\n      add\n        /* \"#utility.yul\":3498:3536   */\n      mstore\n        /* \"#utility.yul\":3557:3630   */\n      tag_135\n        /* \"#utility.yul\":3625:3629   */\n      dup3\n        /* \"#utility.yul\":3611:3623   */\n      dup3\n        /* \"#utility.yul\":3557:3630   */\n      tag_70\n      jump\t// in\n    tag_135:\n        /* \"#utility.yul\":3549:3630   */\n      swap2\n      pop\n        /* \"#utility.yul\":3406:3641   */\n      pop\n        /* \"#utility.yul\":3728:3732   */\n      0x20\n        /* \"#utility.yul\":3721:3726   */\n      dup4\n        /* \"#utility.yul\":3717:3733   */\n      add\n        /* \"#utility.yul\":3711:3734   */\n      mload\n        /* \"#utility.yul\":3747:3804   */\n      tag_136\n        /* \"#utility.yul\":3798:3802   */\n      0x20\n        /* \"#utility.yul\":3793:3796   */\n      dup7\n        /* \"#utility.yul\":3789:3803   */\n      add\n        /* \"#utility.yul\":3775:3787   */\n      dup3\n        /* \"#utility.yul\":3747:3804   */\n      tag_71\n      jump\t// in\n    tag_136:\n        /* \"#utility.yul\":3651:3814   */\n      pop\n        /* \"#utility.yul\":3831:3835   */\n      dup1\n        /* \"#utility.yul\":3824:3835   */\n      swap2\n      pop\n        /* \"#utility.yul\":3360:3841   */\n      pop\n        /* \"#utility.yul\":3250:3841   */\n      swap3\n      swap2\n      pop\n      pop\n      jump\t// out\n        /* \"#utility.yul\":3847:4192   */\n    tag_17:\n        /* \"#utility.yul\":3976:3980   */\n      0x00\n        /* \"#utility.yul\":4014:4016   */\n      0x20\n        /* \"#utility.yul\":4003:4012   */\n      dup3\n        /* \"#utility.yul\":3999:4017   */\n      add\n        /* \"#utility.yul\":3991:4017   */\n      swap1\n      pop\n        /* \"#utility.yul\":4063:4072   */\n      dup2\n        /* \"#utility.yul\":4057:4061   */\n      dup2\n        /* \"#utility.yul\":4053:4073   */\n      sub\n        /* \"#utility.yul\":4049:4050   */\n      0x00\n        /* \"#utility.yul\":4038:4047   */\n      dup4\n        /* \"#utility.yul\":4034:4051   */\n      add\n        /* \"#utility.yul\":4027:4074   */\n      mstore\n        /* \"#utility.yul\":4091:4185   */\n      tag_138\n        /* \"#utility.yul\":4180:4184   */\n      dup2\n        /* \"#utility.yul\":4171:4177   */\n      dup5\n        /* \"#utility.yul\":4091:4185   */\n      tag_72\n      jump\t// in\n    tag_138:\n        /* \"#utility.yul\":4083:4185   */\n      swap1\n      pop\n        /* \"#utility.yul\":3847:4192   */\n      swap3\n      swap2\n      pop\n      pop\n      jump\t// out\n        /* \"#utility.yul\":4198:4315   */\n    tag_73:\n        /* \"#utility.yul\":4307:4308   */\n      0x00\n        /* \"#utility.yul\":4304:4305   */\n      dup1\n        /* \"#utility.yul\":4297:4309   */\n      revert\n        /* \"#utility.yul\":4321:4438   */\n    tag_74:\n        /* \"#utility.yul\":4430:4431   */\n      0x00\n        /* \"#utility.yul\":4427:4428   */\n      dup1\n        /* \"#utility.yul\":4420:4432   */\n      revert\n        /* \"#utility.yul\":4444:4561   */\n    tag_75:\n        /* \"#utility.yul\":4553:4554   */\n      0x00\n        /* \"#utility.yul\":4550:4551   */\n      dup1\n        /* \"#utility.yul\":4543:4555   */\n      revert\n        /* \"#utility.yul\":4581:5134   */\n    tag_76:\n        /* \"#utility.yul\":4639:4647   */\n      0x00\n        /* \"#utility.yul\":4649:4655   */\n      dup1\n        /* \"#utility.yul\":4699:4702   */\n      dup4\n        /* \"#utility.yul\":4692:4696   */\n      0x1f\n        /* \"#utility.yul\":4684:4690   */\n      dup5\n        /* \"#utility.yul\":4680:4697   */\n      add\n        /* \"#utility.yul\":4676:4703   */\n      slt\n        /* \"#utility.yul\":4666:4788   */\n      tag_143\n      jumpi\n        /* \"#utility.yul\":4707:4786   */\n      tag_144\n      tag_73\n      jump\t// in\n    tag_144:\n        /* \"#utility.yul\":4666:4788   */\n    tag_143:\n        /* \"#utility.yul\":4820:4826   */\n      dup3\n        /* \"#utility.yul\":4807:4827   */\n      calldataload\n        /* \"#utility.yul\":4797:4827   */\n      swap1\n      pop\n        /* \"#utility.yul\":4850:4868   */\n      0xffffffffffffffff\n        /* \"#utility.yul\":4842:4848   */\n      dup2\n        /* \"#utility.yul\":4839:4869   */\n      gt\n        /* \"#utility.yul\":4836:4953   */\n      iszero\n      tag_145\n      jumpi\n        /* \"#utility.yul\":4872:4951   */\n      tag_146\n      tag_74\n      jump\t// in\n    tag_146:\n        /* \"#utility.yul\":4836:4953   */\n    tag_145:\n        /* \"#utility.yul\":4986:4990   */\n      0x20\n        /* \"#utility.yul\":4978:4984   */\n      dup4\n        /* \"#utility.yul\":4974:4991   */\n      add\n        /* \"#utility.yul\":4962:4991   */\n      swap2\n      pop\n        /* \"#utility.yul\":5040:5043   */\n      dup4\n        /* \"#utility.yul\":5032:5036   */\n      0x01\n        /* \"#utility.yul\":5024:5030   */\n      dup3\n        /* \"#utility.yul\":5020:5037   */\n      mul\n        /* \"#utility.yul\":5010:5018   */\n      dup4\n        /* \"#utility.yul\":5006:5038   */\n      add\n        /* \"#utility.yul\":5003:5044   */\n      gt\n        /* \"#utility.yul\":5000:5128   */\n      iszero\n      tag_147\n      jumpi\n        /* \"#utility.yul\":5047:5126   */\n      tag_148\n      tag_75\n      jump\t// in\n    tag_148:\n        /* \"#utility.yul\":5000:5128   */\n    tag_147:\n        /* \"#utility.yul\":4581:5134   */\n      swap3\n      pop\n      swap3\n      swap1\n      pop\n      jump\t// out\n        /* \"#utility.yul\":5140:5256   */\n    tag_77:\n        /* \"#utility.yul\":5210:5231   */\n      tag_150\n        /* \"#utility.yul\":5225:5230   */\n      dup2\n        /* \"#utility.yul\":5210:5231   */\n      tag_67\n      jump\t// in\n    tag_150:\n        /* \"#utility.yul\":5203:5208   */\n      dup2\n        /* \"#utility.yul\":5200:5232   */\n      eq\n        /* \"#utility.yul\":5190:5250   */\n      tag_151\n      jumpi\n        /* \"#utility.yul\":5246:5247   */\n      0x00\n        /* \"#utility.yul\":5243:5244   */\n      dup1\n        /* \"#utility.yul\":5236:5248   */\n      revert\n        /* \"#utility.yul\":5190:5250   */\n    tag_151:\n        /* \"#utility.yul\":5140:5256   */\n      pop\n      jump\t// out\n        /* \"#utility.yul\":5262:5395   */\n    tag_78:\n        /* \"#utility.yul\":5305:5310   */\n      0x00\n        /* \"#utility.yul\":5343:5349   */\n      dup2\n        /* \"#utility.yul\":5330:5350   */\n      calldataload\n        /* \"#utility.yul\":5321:5350   */\n      swap1\n      pop\n        /* \"#utility.yul\":5359:5389   */\n      tag_153\n        /* \"#utility.yul\":5383:5388   */\n      dup2\n        /* \"#utility.yul\":5359:5389   */\n      tag_77\n      jump\t// in\n    tag_153:\n        /* \"#utility.yul\":5262:5395   */\n      swap3\n      swap2\n      pop\n      pop\n      jump\t// out\n        /* \"#utility.yul\":5401:6069   */\n    tag_20:\n        /* \"#utility.yul\":5478:5484   */\n      0x00\n        /* \"#utility.yul\":5486:5492   */\n      dup1\n        /* \"#utility.yul\":5494:5500   */\n      0x00\n        /* \"#utility.yul\":5543:5545   */\n      0x40\n        /* \"#utility.yul\":5531:5540   */\n      dup5\n        /* \"#utility.yul\":5522:5529   */\n      dup7\n        /* \"#utility.yul\":5518:5541   */\n      sub\n        /* \"#utility.yul\":5514:5546   */\n      slt\n        /* \"#utility.yul\":5511:5630   */\n      iszero\n      tag_155\n      jumpi\n        /* \"#utility.yul\":5549:5628   */\n      tag_156\n      tag_57\n      jump\t// in\n    tag_156:\n        /* \"#utility.yul\":5511:5630   */\n    tag_155:\n        /* \"#utility.yul\":5697:5698   */\n      0x00\n        /* \"#utility.yul\":5686:5695   */\n      dup5\n        /* \"#utility.yul\":5682:5699   */\n      add\n        /* \"#utility.yul\":5669:5700   */\n      calldataload\n        /* \"#utility.yul\":5727:5745   */\n      0xffffffffffffffff\n        /* \"#utility.yul\":5719:5725   */\n      dup2\n        /* \"#utility.yul\":5716:5746   */\n      gt\n        /* \"#utility.yul\":5713:5830   */\n      iszero\n      tag_157\n      jumpi\n        /* \"#utility.yul\":5749:5828   */\n      tag_158\n      tag_58\n      jump\t// in\n    tag_158:\n        /* \"#utility.yul\":5713:5830   */\n    tag_157:\n        /* \"#utility.yul\":5862:5927   */\n      tag_159\n        /* \"#utility.yul\":5919:5926   */\n      dup7\n        /* \"#utility.yul\":5910:5916   */\n      dup3\n        /* \"#utility.yul\":5899:5908   */\n      dup8\n        /* \"#utility.yul\":5895:5917   */\n      add\n        /* \"#utility.yul\":5862:5927   */\n      tag_76\n      jump\t// in\n    tag_159:\n        /* \"#utility.yul\":5844:5927   */\n      swap4\n      pop\n      swap4\n      pop\n        /* \"#utility.yul\":5640:5937   */\n      pop\n        /* \"#utility.yul\":5976:5978   */\n      0x20\n        /* \"#utility.yul\":6002:6052   */\n      tag_160\n        /* \"#utility.yul\":6044:6051   */\n      dup7\n        /* \"#utility.yul\":6035:6041   */\n      dup3\n        /* \"#utility.yul\":6024:6033   */\n      dup8\n        /* \"#utility.yul\":6020:6042   */\n      add\n        /* \"#utility.yul\":6002:6052   */\n      tag_78\n      jump\t// in\n    tag_160:\n        /* \"#utility.yul\":5992:6052   */\n      swap2\n      pop\n        /* \"#utility.yul\":5947:6062   */\n      pop\n        /* \"#utility.yul\":5401:6069   */\n      swap3\n      pop\n      swap3\n      pop\n      swap3\n      jump\t// out\n        /* \"#utility.yul\":6075:6749   */\n    tag_24:\n        /* \"#utility.yul\":6155:6161   */\n      0x00\n        /* \"#utility.yul\":6163:6169   */\n      dup1\n        /* \"#utility.yul\":6171:6177   */\n      0x00\n        /* \"#utility.yul\":6220:6222   */\n      0x40\n        /* \"#utility.yul\":6208:6217   */\n      dup5\n        /* \"#utility.yul\":6199:6206   */\n      dup7\n        /* \"#utility.yul\":6195:6218   */\n      sub\n        /* \"#utility.yul\":6191:6223   */\n      slt\n        /* \"#utility.yul\":6188:6307   */\n      iszero\n      tag_162\n      jumpi\n        /* \"#utility.yul\":6226:6305   */\n      tag_163\n      tag_57\n      jump\t// in\n    tag_163:\n        /* \"#utility.yul\":6188:6307   */\n    tag_162:\n        /* \"#utility.yul\":6346:6347   */\n      0x00\n        /* \"#utility.yul\":6371:6424   */\n      tag_164\n        /* \"#utility.yul\":6416:6423   */\n      dup7\n        /* \"#utility.yul\":6407:6413   */\n      dup3\n        /* \"#utility.yul\":6396:6405   */\n      dup8\n        /* \"#utility.yul\":6392:6414   */\n      add\n        /* \"#utility.yul\":6371:6424   */\n      tag_61\n      jump\t// in\n    tag_164:\n        /* \"#utility.yul\":6361:6424   */\n      swap4\n      pop\n        /* \"#utility.yul\":6317:6434   */\n      pop\n        /* \"#utility.yul\":6501:6503   */\n      0x20\n        /* \"#utility.yul\":6490:6499   */\n      dup5\n        /* \"#utility.yul\":6486:6504   */\n      add\n        /* \"#utility.yul\":6473:6505   */\n      calldataload\n        /* \"#utility.yul\":6532:6550   */\n      0xffffffffffffffff\n        /* \"#utility.yul\":6524:6530   */\n      dup2\n        /* \"#utility.yul\":6521:6551   */\n      gt\n        /* \"#utility.yul\":6518:6635   */\n      iszero\n      tag_165\n      jumpi\n        /* \"#utility.yul\":6554:6633   */\n      tag_166\n      tag_58\n      jump\t// in\n    tag_166:\n        /* \"#utility.yul\":6518:6635   */\n    tag_165:\n        /* \"#utility.yul\":6667:6732   */\n      tag_167\n        /* \"#utility.yul\":6724:6731   */\n      dup7\n        /* \"#utility.yul\":6715:6721   */\n      dup3\n        /* \"#utility.yul\":6704:6713   */\n      dup8\n        /* \"#utility.yul\":6700:6722   */\n      add\n        /* \"#utility.yul\":6667:6732   */\n      tag_76\n      jump\t// in\n    tag_167:\n        /* \"#utility.yul\":6649:6732   */\n      swap3\n      pop\n      swap3\n      pop\n        /* \"#utility.yul\":6444:6742   */\n      pop\n        /* \"#utility.yul\":6075:6749   */\n      swap3\n      pop\n      swap3\n      pop\n      swap3\n      jump\t// out\n        /* \"#utility.yul\":6755:6935   */\n    tag_79:\n        /* \"#utility.yul\":6803:6880   */\n      0x4e487b7100000000000000000000000000000000000000000000000000000000\n        /* \"#utility.yul\":6800:6801   */\n      0x00\n        /* \"#utility.yul\":6793:6881   */\n      mstore\n        /* \"#utility.yul\":6900:6904   */\n      0x22\n        /* \"#utility.yul\":6897:6898   */\n      0x04\n        /* \"#utility.yul\":6890:6905   */\n      mstore\n        /* \"#utility.yul\":6924:6928   */\n      0x24\n        /* \"#utility.yul\":6921:6922   */\n      0x00\n        /* \"#utility.yul\":6914:6929   */\n      revert\n        /* \"#utility.yul\":6941:7261   */\n    tag_29:\n        /* \"#utility.yul\":6985:6991   */\n      0x00\n        /* \"#utility.yul\":7022:7023   */\n      0x02\n        /* \"#utility.yul\":7016:7020   */\n      dup3\n        /* \"#utility.yul\":7012:7024   */\n      div\n        /* \"#utility.yul\":7002:7024   */\n      swap1\n      pop\n        /* \"#utility.yul\":7069:7070   */\n      0x01\n        /* \"#utility.yul\":7063:7067   */\n      dup3\n        /* \"#utility.yul\":7059:7071   */\n      and\n        /* \"#utility.yul\":7090:7108   */\n      dup1\n        /* \"#utility.yul\":7080:7161   */\n      tag_170\n      jumpi\n        /* \"#utility.yul\":7146:7150   */\n      0x7f\n        /* \"#utility.yul\":7138:7144   */\n      dup3\n        /* \"#utility.yul\":7134:7151   */\n      and\n        /* \"#utility.yul\":7124:7151   */\n      swap2\n      pop\n        /* \"#utility.yul\":7080:7161   */\n    tag_170:\n        /* \"#utility.yul\":7208:7210   */\n      0x20\n        /* \"#utility.yul\":7200:7206   */\n      dup3\n        /* \"#utility.yul\":7197:7211   */\n      lt\n        /* \"#utility.yul\":7177:7195   */\n      dup2\n        /* \"#utility.yul\":7174:7212   */\n      sub\n        /* \"#utility.yul\":7171:7255   */\n      tag_171\n      jumpi\n        /* \"#utility.yul\":7227:7245   */\n      tag_172\n      tag_79\n      jump\t// in\n    tag_172:\n        /* \"#utility.yul\":7171:7255   */\n    tag_171:\n        /* \"#utility.yul\":6992:7261   */\n      pop\n        /* \"#utility.yul\":6941:7261   */\n      swap2\n      swap1\n      pop\n      jump\t// out\n        /* \"#utility.yul\":7267:7447   */\n    tag_39:\n        /* \"#utility.yul\":7315:7392   */\n      0x4e487b7100000000000000000000000000000000000000000000000000000000\n        /* \"#utility.yul\":7312:7313   */\n      0x00\n        /* \"#utility.yul\":7305:7393   */\n      mstore\n        /* \"#utility.yul\":7412:7416   */\n      0x32\n        /* \"#utility.yul\":7409:7410   */\n      0x04\n        /* \"#utility.yul\":7402:7417   */\n      mstore\n        /* \"#utility.yul\":7436:7440   */\n      0x24\n        /* \"#utility.yul\":7433:7434   */\n      0x00\n        /* \"#utility.yul\":7426:7441   */\n      revert\n        /* \"#utility.yul\":7453:7633   */\n    tag_80:\n        /* \"#utility.yul\":7501:7578   */\n      0x4e487b7100000000000000000000000000000000000000000000000000000000\n        /* \"#utility.yul\":7498:7499   */\n      0x00\n        /* \"#utility.yul\":7491:7579   */\n      mstore\n        /* \"#utility.yul\":7598:7602   */\n      0x41\n        /* \"#utility.yul\":7595:7596   */\n      0x04\n        /* \"#utility.yul\":7588:7603   */\n      mstore\n        /* \"#utility.yul\":7622:7626   */\n      0x24\n        /* \"#utility.yul\":7619:7620   */\n      0x00\n        /* \"#utility.yul\":7612:7627   */\n      revert\n        /* \"#utility.yul\":7639:7780   */\n    tag_81:\n        /* \"#utility.yul\":7688:7692   */\n      0x00\n        /* \"#utility.yul\":7711:7714   */\n      dup2\n        /* \"#utility.yul\":7703:7714   */\n      swap1\n      pop\n        /* \"#utility.yul\":7734:7737   */\n      dup2\n        /* \"#utility.yul\":7731:7732   */\n      0x00\n        /* \"#utility.yul\":7724:7738   */\n      mstore\n        /* \"#utility.yul\":7768:7772   */\n      0x20\n        /* \"#utility.yul\":7765:7766   */\n      0x00\n        /* \"#utility.yul\":7755:7773   */\n      keccak256\n        /* \"#utility.yul\":7747:7773   */\n      swap1\n      pop\n        /* \"#utility.yul\":7639:7780   */\n      swap2\n      swap1\n      pop\n      jump\t// out\n        /* \"#utility.yul\":7786:7879   */\n    tag_82:\n        /* \"#utility.yul\":7823:7829   */\n      0x00\n        /* \"#utility.yul\":7870:7872   */\n      0x20\n        /* \"#utility.yul\":7865:7867   */\n      0x1f\n        /* \"#utility.yul\":7858:7863   */\n      dup4\n        /* \"#utility.yul\":7854:7868   */\n      add\n        /* \"#utility.yul\":7850:7873   */\n      div\n        /* \"#utility.yul\":7840:7873   */\n      swap1\n      pop\n        /* \"#utility.yul\":7786:7879   */\n      swap2\n      swap1\n      pop\n      jump\t// out\n        /* \"#utility.yul\":7885:7992   */\n    tag_83:\n        /* \"#utility.yul\":7929:7937   */\n      0x00\n        /* \"#utility.yul\":7979:7984   */\n      dup3\n        /* \"#utility.yul\":7973:7977   */\n      dup3\n        /* \"#utility.yul\":7969:7985   */\n      shl\n        /* \"#utility.yul\":7948:7985   */\n      swap1\n      pop\n        /* \"#utility.yul\":7885:7992   */\n      swap3\n      swap2\n      pop\n      pop\n      jump\t// out\n        /* \"#utility.yul\":7998:8391   */\n    tag_84:\n        /* \"#utility.yul\":8067:8073   */\n      0x00\n        /* \"#utility.yul\":8117:8118   */\n      0x08\n        /* \"#utility.yul\":8105:8115   */\n      dup4\n        /* \"#utility.yul\":8101:8119   */\n      mul\n        /* \"#utility.yul\":8140:8237   */\n      tag_179\n        /* \"#utility.yul\":8170:8236   */\n      0xffffffffffffffffffffffffffffffffffffffffffffffffffffffffffffffff\n        /* \"#utility.yul\":8159:8168   */\n      dup3\n        /* \"#utility.yul\":8140:8237   */\n      tag_83\n      jump\t// in\n    tag_179:\n        /* \"#utility.yul\":8258:8297   */\n      tag_180\n        /* \"#utility.yul\":8288:8296   */\n      dup7\n        /* \"#utility.yul\":8277:8286   */\n      dup4\n        /* \"#utility.yul\":8258:8297   */\n      tag_83\n      jump\t// in\n    tag_180:\n        /* \"#utility.yul\":8246:8297   */\n      swap6\n      pop\n        /* \"#utility.yul\":8330:8334   */\n      dup1\n        /* \"#utility.yul\":8326:8335   */\n      not\n        /* \"#utility.yul\":8319:8324   */\n      dup5\n        /* \"#utility.yul\":8315:8336   */\n      and\n        /* \"#utility.yul\":8306:8336   */\n      swap4\n      pop\n        /* \"#utility.yul\":8379:8383   */\n      dup1\n        /* \"#utility.yul\":8369:8377   */\n      dup7\n        /* \"#utility.yul\":8365:8384   */\n      and\n        /* \"#utility.yul\":8358:8363   */\n      dup5\n        /* \"#utility.yul\":8355:8385   */\n      or\n        /* \"#utility.yul\":8345:8385   */\n      swap3\n      pop\n        /* \"#utility.yul\":8074:8391   */\n      pop\n      pop\n        /* \"#utility.yul\":7998:8391   */\n      swap4\n      swap3\n      pop\n      pop\n      pop\n      jump\t// out\n        /* \"#utility.yul\":8397:8457   */\n    tag_85:\n        /* \"#utility.yul\":8425:8428   */\n      0x00\n        /* \"#utility.yul\":8446:8451   */\n      dup2\n        /* \"#utility.yul\":8439:8451   */\n      swap1\n      pop\n        /* \"#utility.yul\":8397:8457   */\n      swap2\n      swap1\n      pop\n      jump\t// out\n        /* \"#utility.yul\":8463:8605   */\n    tag_86:\n        /* \"#utility.yul\":8513:8522   */\n      0x00\n        /* \"#utility.yul\":8546:8599   */\n      tag_183\n        /* \"#utility.yul\":8564:8598   */\n      tag_184\n        /* \"#utility.yul\":8573:8597   */\n      tag_185\n        /* \"#utility.yul\":8591:8596   */\n      dup5\n        /* \"#utility.yul\":8573:8597   */\n      tag_59\n      jump\t// in\n    tag_185:\n        /* \"#utility.yul\":8564:8598   */\n      tag_85\n      jump\t// in\n    tag_184:\n        /* \"#utility.yul\":8546:8599   */\n      tag_59\n      jump\t// in\n    tag_183:\n        /* \"#utility.yul\":8533:8599   */\n      swap1\n      pop\n        /* \"#utility.yul\":8463:8605   */\n      swap2\n      swap1\n      pop\n      jump\t// out\n        /* \"#utility.yul\":8611:8686   */\n    tag_87:\n        /* \"#utility.yul\":8654:8657   */\n      0x00\n        /* \"#utility.yul\":8675:8680   */\n      dup2\n        /* \"#utility.yul\":8668:8680   */\n      swap1\n      pop\n        /* \"#utility.yul\":8611:8686   */\n      swap2\n      swap1\n      pop\n      jump\t// out\n        /* \"#utility.yul\":8692:8961   */\n    tag_88:\n        /* \"#utility.yul\":8802:8841   */\n      tag_188\n        /* \"#utility.yul\":8833:8840   */\n      dup4\n        /* \"#utility.yul\":8802:8841   */\n      tag_86\n      jump\t// in\n    tag_188:\n        /* \"#utility.yul\":8863:8954   */\n      tag_189\n        /* \"#utility.yul\":8912:8953   */\n      tag_190\n        /* \"#utility.yul\":8936:8952   */\n      dup3\n        /* \"#utility.yul\":8912:8953   */\n      tag_87\n      jump\t// in\n    tag_190:\n        /* \"#utility.yul\":8904:8910   */\n      dup5\n        /* \"#utility.yul\":8897:8901   */\n      dup5\n        /* \"#utility.yul\":8891:8902   */\n      sload\n        /* \"#utility.yul\":8863:8954   */\n      tag_84\n      jump\t// in\n    tag_189:\n        /* \"#utility.yul\":8857:8861   */\n      dup3\n        /* \"#utility.yul\":8850:8955   */\n      sstore\n        /* \"#utility.yul\":8768:8961   */\n      pop\n        /* \"#utility.yul\":8692:8961   */\n      pop\n      pop\n      pop\n      jump\t// out\n        /* \"#utility.yul\":8967:9040   */\n    tag_89:\n        /* \"#utility.yul\":9012:9015   */\n      0x00\n        /* \"#utility.yul\":8967:9040   */\n      swap1\n      jump\t// out\n        /* \"#utility.yul\":9046:9235   */\n    tag_90:\n        /* \"#utility.yul\":9123:9155   */\n      tag_193\n      tag_89\n      jump\t// in\n    tag_193:\n        /* \"#utility.yul\":9164:9229   */\n      tag_194\n        /* \"#utility.yul\":9222:9228   */\n      dup2\n        /* \"#utility.yul\":9214:9220   */\n      dup5\n        /* \"#utility.yul\":9208:9212   */\n      dup5\n        /* \"#utility.yul\":9164:9229   */\n      tag_88\n      jump\t// in\n    tag_194:\n        /* \"#utility.yul\":9099:9235   */\n      pop\n        /* \"#utility.yul\":9046:9235   */\n      pop\n      pop\n      jump\t// out\n        /* \"#utility.yul\":9241:9427   */\n    tag_91:\n        /* \"#utility.yul\":9301:9421   */\n    tag_196:\n        /* \"#utility.yul\":9318:9321   */\n      dup2\n        /* \"#utility.yul\":9311:9316   */\n      dup2\n        /* \"#utility.yul\":9308:9322   */\n      lt\n        /* \"#utility.yul\":9301:9421   */\n      iszero\n      tag_198\n      jumpi\n        /* \"#utility.yul\":9372:9411   */\n      tag_199\n        /* \"#utility.yul\":9409:9410   */\n      0x00\n        /* \"#utility.yul\":9402:9407   */\n      dup3\n        /* \"#utility.yul\":9372:9411   */\n      tag_90\n      jump\t// in\n    tag_199:\n        /* \"#utility.yul\":9345:9346   */\n      0x01\n        /* \"#utility.yul\":9338:9343   */\n      dup2\n        /* \"#utility.yul\":9334:9347   */\n      add\n        /* \"#utility.yul\":9325:9347   */\n      swap1\n      pop\n        /* \"#utility.yul\":9301:9421   */\n      jump(tag_196)\n    tag_198:\n        /* \"#utility.yul\":9241:9427   */\n      pop\n      pop\n      jump\t// out\n        /* \"#utility.yul\":9433:9976   */\n    tag_92:\n        /* \"#utility.yul\":9534:9536   */\n      0x1f\n        /* \"#utility.yul\":9529:9532   */\n      dup3\n        /* \"#utility.yul\":9526:9537   */\n      gt\n        /* \"#utility.yul\":9523:9969   */\n      iszero\n      tag_201\n      jumpi\n        /* \"#utility.yul\":9568:9606   */\n      tag_202\n        /* \"#utility.yul\":9600:9605   */\n      dup2\n        /* \"#utility.yul\":9568:9606   */\n      tag_81\n      jump\t// in\n    tag_202:\n        /* \"#utility.yul\":9652:9681   */\n      tag_203\n        /* \"#utility.yul\":9670:9680   */\n      dup5\n        /* \"#utility.yul\":9652:9681   */\n      tag_82\n      jump\t// in\n    tag_203:\n        /* \"#utility.yul\":9642:9650   */\n      dup2\n        /* \"#utility.yul\":9638:9682   */\n      add\n        /* \"#utility.yul\":9835:9837   */\n      0x20\n        /* \"#utility.yul\":9823:9833   */\n      dup6\n        /* \"#utility.yul\":9820:9838   */\n      lt\n        /* \"#utility.yul\":9817:9866   */\n      iszero\n      tag_204\n      jumpi\n        /* \"#utility.yul\":9856:9864   */\n      dup2\n        /* \"#utility.yul\":9841:9864   */\n      swap1\n      pop\n        /* \"#utility.yul\":9817:9866   */\n    tag_204:\n        /* \"#utility.yul\":9879:9959   */\n      tag_205\n        /* \"#utility.yul\":9935:9957   */\n      tag_206\n        /* \"#utility.yul\":9953:9956   */\n      dup6\n        /* \"#utility.yul\":9935:9957   */\n      tag_82\n      jump\t// in\n    tag_206:\n        /* \"#utility.yul\":9925:9933   */\n      dup4\n        /* \"#utility.yul\":9921:9958   */\n      add\n        /* \"#utility.yul\":9908:9919   */\n      dup3\n        /* \"#utility.yul\":9879:9959   */\n      tag_91\n      jump\t// in\n    tag_205:\n        /* \"#utility.yul\":9538:9969   */\n      pop\n      pop\n        /* \"#utility.yul\":9523:9969   */\n    tag_201:\n        /* \"#utility.yul\":9433:9976   */\n      pop\n      pop\n      pop\n      jump\t// out\n        /* \"#utility.yul\":9982:10099   */\n    tag_93:\n        /* \"#utility.yul\":10036:10044   */\n      0x00\n        /* \"#utility.yul\":10086:10091   */\n      dup3\n        /* \"#utility.yul\":10080:10084   */\n      dup3\n        /* \"#utility.yul\":10076:10092   */\n      shr\n        /* \"#utility.yul\":10055:10092   */\n      swap1\n      pop\n        /* \"#utility.yul\":9982:10099   */\n      swap3\n      swap2\n      pop\n      pop\n      jump\t// out\n        /* \"#utility.yul\":10105:10274   */\n    tag_94:\n        /* \"#utility.yul\":10149:10155   */\n      0x00\n        /* \"#utility.yul\":10182:10233   */\n      tag_209\n        /* \"#utility.yul\":10230:10231   */\n      0x00\n        /* \"#utility.yul\":10226:10232   */\n      not\n        /* \"#utility.yul\":10218:10223   */\n      dup5\n        /* \"#utility.yul\":10215:10216   */\n      0x08\n        /* \"#utility.yul\":10211:10224   */\n      mul\n        /* \"#utility.yul\":10182:10233   */\n      tag_93\n      jump\t// in\n    tag_209:\n        /* \"#utility.yul\":10178:10234   */\n      not\n        /* \"#utility.yul\":10263:10267   */\n      dup1\n        /* \"#utility.yul\":10257:10261   */\n      dup4\n        /* \"#utility.yul\":10253:10268   */\n      and\n        /* \"#utility.yul\":10243:10268   */\n      swap2\n      pop\n        /* \"#utility.yul\":10156:10274   */\n      pop\n        /* \"#utility.yul\":10105:10274   */\n      swap3\n      swap2\n      pop\n      pop\n      jump\t// out\n        /* \"#utility.yul\":10279:10574   */\n    tag_95:\n        /* \"#utility.yul\":10355:10359   */\n      0x00\n        /* \"#utility.yul\":10501:10530   */\n      tag_211\n        /* \"#utility.yul\":10526:10529   */\n      dup4\n        /* \"#utility.yul\":10520:10524   */\n      dup4\n        /* \"#utility.yul\":10501:10530   */\n      tag_94\n      jump\t// in\n    tag_211:\n        /* \"#utility.yul\":10493:10530   */\n      swap2\n      pop\n        /* \"#utility.yul\":10563:10566   */\n      dup3\n        /* \"#utility.yul\":10560:10561   */\n      0x02\n        /* \"#utility.yul\":10556:10567   */\n      mul\n        /* \"#utility.yul\":10550:10554   */\n      dup3\n        /* \"#utility.yul\":10547:10568   */\n      or\n        /* \"#utility.yul\":10539:10568   */\n      swap1\n      pop\n        /* \"#utility.yul\":10279:10574   */\n      swap3\n      swap2\n      pop\n      pop\n      jump\t// out\n        /* \"#utility.yul\":10579:11974   */\n    tag_49:\n        /* \"#utility.yul\":10696:10733   */\n      tag_213\n        /* \"#utility.yul\":10729:10732   */\n      dup3\n        /* \"#utility.yul\":10696:10733   */\n      tag_62\n      jump\t// in\n    tag_213:\n        /* \"#utility.yul\":10798:10816   */\n      0xffffffffffffffff\n        /* \"#utility.yul\":10790:10796   */\n      dup2\n        /* \"#utility.yul\":10787:10817   */\n      gt\n        /* \"#utility.yul\":10784:10840   */\n      iszero\n      tag_214\n      jumpi\n        /* \"#utility.yul\":10820:10838   */\n      tag_215\n      tag_80\n      jump\t// in\n    tag_215:\n        /* \"#utility.yul\":10784:10840   */\n    tag_214:\n        /* \"#utility.yul\":10864:10902   */\n      tag_216\n        /* \"#utility.yul\":10896:10900   */\n      dup3\n        /* \"#utility.yul\":10890:10901   */\n      sload\n        /* \"#utility.yul\":10864:10902   */\n      tag_29\n      jump\t// in\n    tag_216:\n        /* \"#utility.yul\":10949:11016   */\n      tag_217\n        /* \"#utility.yul\":11009:11015   */\n      dup3\n        /* \"#utility.yul\":11001:11007   */\n      dup3\n        /* \"#utility.yul\":10995:10999   */\n      dup6\n        /* \"#utility.yul\":10949:11016   */\n      tag_92\n      jump\t// in\n    tag_217:\n        /* \"#utility.yul\":11043:11044   */\n      0x00\n        /* \"#utility.yul\":11067:11071   */\n      0x20\n        /* \"#utility.yul\":11054:11071   */\n      swap1\n      pop\n        /* \"#utility.yul\":11099:11101   */\n      0x1f\n        /* \"#utility.yul\":11091:11097   */\n      dup4\n        /* \"#utility.yul\":11088:11102   */\n      gt\n        /* \"#utility.yul\":11116:11117   */\n      0x01\n        /* \"#utility.yul\":11111:11729   */\n      dup2\n      eq\n      tag_219\n      jumpi\n        /* \"#utility.yul\":11773:11774   */\n      0x00\n        /* \"#utility.yul\":11790:11796   */\n      dup5\n        /* \"#utility.yul\":11787:11864   */\n      iszero\n      tag_220\n      jumpi\n        /* \"#utility.yul\":11839:11848   */\n      dup3\n        /* \"#utility.yul\":11834:11837   */\n      dup8\n        /* \"#utility.yul\":11830:11849   */\n      add\n        /* \"#utility.yul\":11824:11850   */\n      mload\n        /* \"#utility.yul\":11815:11850   */\n      swap1\n      pop\n        /* \"#utility.yul\":11787:11864   */\n    tag_220:\n        /* \"#utility.yul\":11890:11957   */\n      tag_221\n        /* \"#utility.yul\":11950:11956   */\n      dup6\n        /* \"#utility.yul\":11943:11948   */\n      dup3\n        /* \"#utility.yul\":11890:11957   */\n      tag_95\n      jump\t// in\n    tag_221:\n        /* \"#utility.yul\":11884:11888   */\n      dup7\n        /* \"#utility.yul\":11877:11958   */\n      sstore\n        /* \"#utility.yul\":11746:11968   */\n      pop\n        /* \"#utility.yul\":11081:11968   */\n      jump(tag_218)\n        /* \"#utility.yul\":11111:11729   */\n    tag_219:\n        /* \"#utility.yul\":11163:11167   */\n      0x1f\n        /* \"#utility.yul\":11159:11168   */\n      not\n        /* \"#utility.yul\":11151:11157   */\n      dup5\n        /* \"#utility.yul\":11147:11169   */\n      and\n        /* \"#utility.yul\":11197:11234   */\n      tag_222\n        /* \"#utility.yul\":11229:11233   */\n      dup7\n        /* \"#utility.yul\":11197:11234   */\n      tag_81\n      jump\t// in\n    tag_222:\n        /* \"#utility.yul\":11256:11257   */\n      0x00\n        /* \"#utility.yul\":11270:11478   */\n    tag_223:\n        /* \"#utility.yul\":11284:11291   */\n      dup3\n        /* \"#utility.yul\":11281:11282   */\n      dup2\n        /* \"#utility.yul\":11278:11292   */\n      lt\n        /* \"#utility.yul\":11270:11478   */\n      iszero\n      tag_225\n      jumpi\n        /* \"#utility.yul\":11363:11372   */\n      dup5\n        /* \"#utility.yul\":11358:11361   */\n      dup10\n        /* \"#utility.yul\":11354:11373   */\n      add\n        /* \"#utility.yul\":11348:11374   */\n      mload\n        /* \"#utility.yul\":11340:11346   */\n      dup3\n        /* \"#utility.yul\":11333:11375   */\n      sstore\n        /* \"#utility.yul\":11414:11415   */\n      0x01\n        /* \"#utility.yul\":11406:11412   */\n      dup3\n        /* \"#utility.yul\":11402:11416   */\n      add\n        /* \"#utility.yul\":11392:11416   */\n      swap2\n      pop\n        /* \"#utility.yul\":11461:11463   */\n      0x20\n        /* \"#utility.yul\":11450:11459   */\n      dup6\n        /* \"#utility.yul\":11446:11464   */\n      add\n        /* \"#utility.yul\":11433:11464   */\n      swap5\n      pop\n        /* \"#utility.yul\":11307:11311   */\n      0x20\n        /* \"#utility.yul\":11304:11305   */\n      dup2\n        /* \"#utility.yul\":11300:11312   */\n      add\n        /* \"#utility.yul\":11295:11312   */\n      swap1\n      pop\n        /* \"#utility.yul\":11270:11478   */\n      jump(tag_223)\n    tag_225:\n        /* \"#utility.yul\":11506:11512   */\n      dup7\n        /* \"#utility.yul\":11497:11504   */\n      dup4\n        /* \"#utility.yul\":11494:11513   */\n      lt\n        /* \"#utility.yul\":11491:11670   */\n      iszero\n      tag_226\n      jumpi\n        /* \"#utility.yul\":11564:11573   */\n      dup5\n        /* \"#utility.yul\":11559:11562   */\n      dup10\n        /* \"#utility.yul\":11555:11574   */\n      add\n        /* \"#utility.yul\":11549:11575   */\n      mload\n        /* \"#utility.yul\":11607:11655   */\n      tag_227\n        /* \"#utility.yul\":11649:11653   */\n      0x1f\n        /* \"#utility.yul\":11641:11647   */\n      dup10\n        /* \"#utility.yul\":11637:11654   */\n      and\n        /* \"#utility.yul\":11626:11635   */\n      dup3\n        /* \"#utility.yul\":11607:11655   */\n      tag_94\n      jump\t// in\n    tag_227:\n        /* \"#utility.yul\":11599:11605   */\n      dup4\n        /* \"#utility.yul\":11592:11656   */\n      sstore\n        /* \"#utility.yul\":11514:11670   */\n      pop\n        /* \"#utility.yul\":11491:11670   */\n    tag_226:\n        /* \"#utility.yul\":11716:11717   */\n      0x01\n        /* \"#utility.yul\":11712:11713   */\n      0x02\n        /* \"#utility.yul\":11704:11710   */\n      dup9\n        /* \"#utility.yul\":11700:11714   */\n      mul\n        /* \"#utility.yul\":11696:11718   */\n      add\n        /* \"#utility.yul\":11690:11694   */\n      dup9\n        /* \"#utility.yul\":11683:11719   */\n      sstore\n        /* \"#utility.yul\":11118:11729   */\n      pop\n      pop\n      pop\n        /* \"#utility.yul\":11081:11968   */\n    tag_218:\n      pop\n        /* \"#utility.yul\":10671:11974   */\n      pop\n      pop\n      pop\n        /* \"#utility.yul\":10579:11974   */\n      pop\n      pop\n      jump\t// out\n        /* \"#utility.yul\":11980:12077   */\n    tag_96:\n        /* \"#utility.yul\":12039:12045   */\n      0x00\n        /* \"#utility.yul\":12067:12070   */\n      dup3\n        /* \"#utility.yul\":12057:12070   */\n      swap1\n      pop\n        /* \"#utility.yul\":11980:12077   */\n      swap3\n      swap2\n      pop\n      pop\n      jump\t// out\n        /* \"#utility.yul\":12083:13486   */\n    tag_55:\n        /* \"#utility.yul\":12207:12251   */\n      tag_230\n        /* \"#utility.yul\":12247:12250   */\n      dup4\n        /* \"#utility.yul\":12242:12245   */\n      dup4\n        /* \"#utility.yul\":12207:12251   */\n      tag_96\n      jump\t// in\n    tag_230:\n        /* \"#utility.yul\":12316:12334   */\n      0xffffffffffffffff\n        /* \"#utility.yul\":12308:12314   */\n      dup2\n        /* \"#utility.yul\":12305:12335   */\n      gt\n        /* \"#utility.yul\":12302:12358   */\n      iszero\n      tag_231\n      jumpi\n        /* \"#utility.yul\":12338:12356   */\n      tag_232\n      tag_80\n      jump\t// in\n    tag_232:\n        /* \"#utility.yul\":12302:12358   */\n    tag_231:\n        /* \"#utility.yul\":12382:12420   */\n      tag_233\n        /* \"#utility.yul\":12414:12418   */\n      dup3\n        /* \"#utility.yul\":12408:12419   */\n      sload\n        /* \"#utility.yul\":12382:12420   */\n      tag_29\n      jump\t// in\n    tag_233:\n        /* \"#utility.yul\":12467:12534   */\n      tag_234\n        /* \"#utility.yul\":12527:12533   */\n      dup3\n        /* \"#utility.yul\":12519:12525   */\n      dup3\n        /* \"#utility.yul\":12513:12517   */\n      dup6\n        /* \"#utility.yul\":12467:12534   */\n      tag_92\n      jump\t// in\n    tag_234:\n        /* \"#utility.yul\":12561:12562   */\n      0x00\n        /* \"#utility.yul\":12590:12592   */\n      0x1f\n        /* \"#utility.yul\":12582:12588   */\n      dup4\n        /* \"#utility.yul\":12579:12593   */\n      gt\n        /* \"#utility.yul\":12607:12608   */\n      0x01\n        /* \"#utility.yul\":12602:13234   */\n      dup2\n      eq\n      tag_236\n      jumpi\n        /* \"#utility.yul\":13278:13279   */\n      0x00\n        /* \"#utility.yul\":13295:13301   */\n      dup5\n        /* \"#utility.yul\":13292:13376   */\n      iszero\n      tag_237\n      jumpi\n        /* \"#utility.yul\":13351:13360   */\n      dup3\n        /* \"#utility.yul\":13346:13349   */\n      dup8\n        /* \"#utility.yul\":13342:13361   */\n      add\n        /* \"#utility.yul\":13329:13362   */\n      calldataload\n        /* \"#utility.yul\":13320:13362   */\n      swap1\n      pop\n        /* \"#utility.yul\":13292:13376   */\n    tag_237:\n        /* \"#utility.yul\":13402:13469   */\n      tag_238\n        /* \"#utility.yul\":13462:13468   */\n      dup6\n        /* \"#utility.yul\":13455:13460   */\n      dup3\n        /* \"#utility.yul\":13402:13469   */\n      tag_95\n      jump\t// in\n    tag_238:\n        /* \"#utility.yul\":13396:13400   */\n      dup7\n        /* \"#utility.yul\":13389:13470   */\n      sstore\n        /* \"#utility.yul\":13251:13480   */\n      pop\n        /* \"#utility.yul\":12572:13480   */\n      jump(tag_235)\n        /* \"#utility.yul\":12602:13234   */\n    tag_236:\n        /* \"#utility.yul\":12654:12658   */\n      0x1f\n        /* \"#utility.yul\":12650:12659   */\n      not\n        /* \"#utility.yul\":12642:12648   */\n      dup5\n        /* \"#utility.yul\":12638:12660   */\n      and\n        /* \"#utility.yul\":12688:12725   */\n      tag_239\n        /* \"#utility.yul\":12720:12724   */\n      dup7\n        /* \"#utility.yul\":12688:12725   */\n      tag_81\n      jump\t// in\n    tag_239:\n        /* \"#utility.yul\":12747:12748   */\n      0x00\n        /* \"#utility.yul\":12761:12976   */\n    tag_240:\n        /* \"#utility.yul\":12775:12782   */\n      dup3\n        /* \"#utility.yul\":12772:12773   */\n      dup2\n        /* \"#utility.yul\":12769:12783   */\n      lt\n        /* \"#utility.yul\":12761:12976   */\n      iszero\n      tag_242\n      jumpi\n        /* \"#utility.yul\":12861:12870   */\n      dup5\n        /* \"#utility.yul\":12856:12859   */\n      dup10\n        /* \"#utility.yul\":12852:12871   */\n      add\n        /* \"#utility.yul\":12839:12872   */\n      calldataload\n        /* \"#utility.yul\":12831:12837   */\n      dup3\n        /* \"#utility.yul\":12824:12873   */\n      sstore\n        /* \"#utility.yul\":12912:12913   */\n      0x01\n        /* \"#utility.yul\":12904:12910   */\n      dup3\n        /* \"#utility.yul\":12900:12914   */\n      add\n        /* \"#utility.yul\":12890:12914   */\n      swap2\n      pop\n        /* \"#utility.yul\":12959:12961   */\n      0x20\n        /* \"#utility.yul\":12948:12957   */\n      dup6\n        /* \"#utility.yul\":12944:12962   */\n      add\n        /* \"#utility.yul\":12931:12962   */\n      swap5\n      pop\n        /* \"#utility.yul\":12798:12802   */\n      0x20\n        /* \"#utility.yul\":12795:12796   */\n      dup2\n        /* \"#utility.yul\":12791:12803   */\n      add\n        /* \"#utility.yul\":12786:12803   */\n      swap1\n      pop\n        /* \"#utility.yul\":12761:12976   */\n      jump(tag_240)\n    tag_242:\n        /* \"#utility.yul\":13004:13010   */\n      dup7\n        /* \"#utility.yul\":12995:13002   */\n      dup4\n        /* \"#utility.yul\":12992:13011   */\n      lt\n        /* \"#utility.yul\":12989:13175   */\n      iszero\n      tag_243\n      jumpi\n        /* \"#utility.yul\":13069:13078   */\n      dup5\n        /* \"#utility.yul\":13064:13067   */\n      dup10\n        /* \"#utility.yul\":13060:13079   */\n      add\n        /* \"#utility.yul\":13047:13080   */\n      calldataload\n        /* \"#utility.yul\":13112:13160   */\n      tag_244\n        /* \"#utility.yul\":13154:13158   */\n      0x1f\n        /* \"#utility.yul\":13146:13152   */\n      dup10\n        /* \"#utility.yul\":13142:13159   */\n      and\n        /* \"#utility.yul\":13131:13140   */\n      dup3\n        /* \"#utility.yul\":13112:13160   */\n      tag_94\n      jump\t// in\n    tag_244:\n        /* \"#utility.yul\":13104:13110   */\n      dup4\n        /* \"#utility.yul\":13097:13161   */\n      sstore\n        /* \"#utility.yul\":13012:13175   */\n      pop\n        /* \"#utility.yul\":12989:13175   */\n    tag_243:\n        /* \"#utility.yul\":13221:13222   */\n      0x01\n        /* \"#utility.yul\":13217:13218   */\n      0x02\n        /* \"#utility.yul\":13209:13215   */\n      dup9\n        /* \"#utility.yul\":13205:13219   */\n      mul\n        /* \"#utility.yul\":13201:13223   */\n      add\n        /* \"#utility.yul\":13195:13199   */\n      dup9\n        /* \"#utility.yul\":13188:13224   */\n      sstore\n        /* \"#utility.yul\":12609:13234   */\n      pop\n      pop\n      pop\n        /* \"#utility.yul\":12572:13480   */\n    tag_235:\n      pop\n        /* \"#utility.yul\":12182:13486   */\n      pop\n      pop\n      pop\n        /* \"#utility.yul\":12083:13486   */\n      pop\n      pop\n      pop\n      jump\t// out\n\n    auxdata: 0xa2646970667358221220694649f49d0cb63e92b18c95178c5367e9cccd9737000ff387edd1fd4bd63def64736f6c634300081a0033\n}\n",
				"bytecode": {
					"linkReferences": {},
					"object": "6080604052348015600e575f80fd5b50610b0a8061001c5f395ff3fe608060405234801561000f575f80fd5b506004361061004a575f3560e01c8063208df5a31461004e5780639507d39a1461007f578063cc10e401146100af578063f745630f146100cb575b5f80fd5b61006860048036038101906100639190610401565b6100e7565b6040516100769291906104b6565b60405180910390f35b61009960048036038101906100949190610401565b6101a7565b6040516100a69190610575565b60405180910390f35b6100c960048036038101906100c49190610620565b610289565b005b6100e560048036038101906100e0919061067d565b610344565b005b5f81815481106100f5575f80fd5b905f5260205f2090600202015f91509050805f01805461011490610707565b80601f016020809104026020016040519081016040528092919081815260200182805461014090610707565b801561018b5780601f106101625761010080835404028352916020019161018b565b820191905f5260205f20905b81548152906001019060200180831161016e57829003601f168201915b505050505090806001015f9054906101000a900460ff16905082565b6101af6103ab565b5f82815481106101c2576101c1610737565b5b905f5260205f2090600202016040518060400160405290815f820180546101e890610707565b80601f016020809104026020016040519081016040528092919081815260200182805461021490610707565b801561025f5780601f106102365761010080835404028352916020019161025f565b820191905f5260205f20905b81548152906001019060200180831161024257829003601f168201915b50505050508152602001600182015f9054906101000a900460ff1615151515815250509050919050565b5f604051806040016040528085858080601f0160208091040260200160405190810160405280939291908181526020018383808284375f81840152601f19601f820116905080830192505050505050508152602001831515815250908060018154018082558091505060019003905f5260205f2090600202015f909190919091505f820151815f01908161031d919061092e565b506020820151816001015f6101000a81548160ff0219169083151502179055505050505050565b5f80848154811061035857610357610737565b5b905f5260205f2090600202019050806001015f9054906101000a900460ff1615816001015f6101000a81548160ff0219169083151502179055508282825f0191826103a4929190610a07565b5050505050565b6040518060400160405280606081526020015f151581525090565b5f80fd5b5f80fd5b5f819050919050565b6103e0816103ce565b81146103ea575f80fd5b50565b5f813590506103fb816103d7565b92915050565b5f60208284031215610416576104156103c6565b5b5f610423848285016103ed565b91505092915050565b5f81519050919050565b5f82825260208201905092915050565b8281835e5f83830152505050565b5f601f19601f8301169050919050565b5f61046e8261042c565b6104788185610436565b9350610488818560208601610446565b61049181610454565b840191505092915050565b5f8115159050919050565b6104b08161049c565b82525050565b5f6040820190508181035f8301526104ce8185610464565b90506104dd60208301846104a7565b9392505050565b5f82825260208201905092915050565b5f6104fe8261042c565b61050881856104e4565b9350610518818560208601610446565b61052181610454565b840191505092915050565b6105358161049c565b82525050565b5f604083015f8301518482035f86015261055582826104f4565b915050602083015161056a602086018261052c565b508091505092915050565b5f6020820190508181035f83015261058d818461053b565b905092915050565b5f80fd5b5f80fd5b5f80fd5b5f8083601f8401126105b6576105b5610595565b5b8235905067ffffffffffffffff8111156105d3576105d2610599565b5b6020830191508360018202830111156105ef576105ee61059d565b5b9250929050565b6105ff8161049c565b8114610609575f80fd5b50565b5f8135905061061a816105f6565b92915050565b5f805f60408486031215610637576106366103c6565b5b5f84013567ffffffffffffffff811115610654576106536103ca565b5b610660868287016105a1565b935093505060206106738682870161060c565b9150509250925092565b5f805f60408486031215610694576106936103c6565b5b5f6106a1868287016103ed565b935050602084013567ffffffffffffffff8111156106c2576106c16103ca565b5b6106ce868287016105a1565b92509250509250925092565b7f4e487b71000000000000000000000000000000000000000000000000000000005f52602260045260245ffd5b5f600282049050600182168061071e57607f821691505b602082108103610731576107306106da565b5b50919050565b7f4e487b71000000000000000000000000000000000000000000000000000000005f52603260045260245ffd5b7f4e487b71000000000000000000000000000000000000000000000000000000005f52604160045260245ffd5b5f819050815f5260205f209050919050565b5f6020601f8301049050919050565b5f82821b905092915050565b5f600883026107ed7fffffffffffffffffffffffffffffffffffffffffffffffffffffffffffffffff826107b2565b6107f786836107b2565b95508019841693508086168417925050509392505050565b5f819050919050565b5f61083261082d610828846103ce565b61080f565b6103ce565b9050919050565b5f819050919050565b61084b83610818565b61085f61085782610839565b8484546107be565b825550505050565b5f90565b610873610867565b61087e818484610842565b505050565b5b818110156108a1576108965f8261086b565b600181019050610884565b5050565b601f8211156108e6576108b781610791565b6108c0846107a3565b810160208510156108cf578190505b6108e36108db856107a3565b830182610883565b50505b505050565b5f82821c905092915050565b5f6109065f19846008026108eb565b1980831691505092915050565b5f61091e83836108f7565b9150826002028217905092915050565b6109378261042c565b67ffffffffffffffff8111156109505761094f610764565b5b61095a8254610707565b6109658282856108a5565b5f60209050601f831160018114610996575f8415610984578287015190505b61098e8582610913565b8655506109f5565b601f1984166109a486610791565b5f5b828110156109cb578489015182556001820191506020850194506020810190506109a6565b868310156109e857848901516109e4601f8916826108f7565b8355505b6001600288020188555050505b505050505050565b5f82905092915050565b610a1183836109fd565b67ffffffffffffffff811115610a2a57610a29610764565b5b610a348254610707565b610a3f8282856108a5565b5f601f831160018114610a6c575f8415610a5a578287013590505b610a648582610913565b865550610acb565b601f198416610a7a86610791565b5f5b82811015610aa157848901358255600182019150602085019450602081019050610a7c565b86831015610abe5784890135610aba601f8916826108f7565b8355505b6001600288020188555050505b5050505050505056fea2646970667358221220694649f49d0cb63e92b18c95178c5367e9cccd9737000ff387edd1fd4bd63def64736f6c634300081a0033",
					"opcodes": "PUSH1 0x80 PUSH1 0x40 MSTORE CALLVALUE DUP1 ISZERO PUSH1 0xE JUMPI PUSH0 DUP1 REVERT JUMPDEST POP PUSH2 0xB0A DUP1 PUSH2 0x1C PUSH0 CODECOPY PUSH0 RETURN INVALID PUSH1 0x80 PUSH1 0x40 MSTORE CALLVALUE DUP1 ISZERO PUSH2 0xF JUMPI PUSH0 DUP1 REVERT JUMPDEST POP PUSH1 0x4 CALLDATASIZE LT PUSH2 0x4A JUMPI PUSH0 CALLDATALOAD PUSH1 0xE0 SHR DUP1 PUSH4 0x208DF5A3 EQ PUSH2 0x4E JUMPI DUP1 PUSH4 0x9507D39A EQ PUSH2 0x7F JUMPI DUP1 PUSH4 0xCC10E401 EQ PUSH2 0xAF JUMPI DUP1 PUSH4 0xF745630F EQ PUSH2 0xCB JUMPI JUMPDEST PUSH0 DUP1 REVERT JUMPDEST PUSH2 0x68 PUSH1 0x4 DUP1 CALLDATASIZE SUB DUP2 ADD SWAP1 PUSH2 0x63 SWAP2 SWAP1 PUSH2 0x401 JUMP JUMPDEST PUSH2 0xE7 JUMP JUMPDEST PUSH1 0x40 MLOAD PUSH2 0x76 SWAP3 SWAP2 SWAP1 PUSH2 0x4B6 JUMP JUMPDEST PUSH1 0x40 MLOAD DUP1 SWAP2 SUB SWAP1 RETURN JUMPDEST PUSH2 0x99 PUSH1 0x4 DUP1 CALLDATASIZE SUB DUP2 ADD SWAP1 PUSH2 0x94 SWAP2 SWAP1 PUSH2 0x401 JUMP JUMPDEST PUSH2 0x1A7 JUMP JUMPDEST PUSH1 0x40 MLOAD PUSH2 0xA6 SWAP2 SWAP1 PUSH2 0x575 JUMP JUMPDEST PUSH1 0x40 MLOAD DUP1 SWAP2 SUB SWAP1 RETURN JUMPDEST PUSH2 0xC9 PUSH1 0x4 DUP1 CALLDATASIZE SUB DUP2 ADD SWAP1 PUSH2 0xC4 SWAP2 SWAP1 PUSH2 0x620 JUMP JUMPDEST PUSH2 0x289 JUMP JUMPDEST STOP JUMPDEST PUSH2 0xE5 PUSH1 0x4 DUP1 CALLDATASIZE SUB DUP2 ADD SWAP1 PUSH2 0xE0 SWAP2 SWAP1 PUSH2 0x67D JUMP JUMPDEST PUSH2 0x344 JUMP JUMPDEST STOP JUMPDEST PUSH0 DUP2 DUP2 SLOAD DUP2 LT PUSH2 0xF5 JUMPI PUSH0 DUP1 REVERT JUMPDEST SWAP1 PUSH0 MSTORE PUSH1 0x20 PUSH0 KECCAK256 SWAP1 PUSH1 0x2 MUL ADD PUSH0 SWAP2 POP SWAP1 POP DUP1 PUSH0 ADD DUP1 SLOAD PUSH2 0x114 SWAP1 PUSH2 0x707 JUMP JUMPDEST DUP1 PUSH1 0x1F ADD PUSH1 0x20 DUP1 SWAP2 DIV MUL PUSH1 0x20 ADD PUSH1 0x40 MLOAD SWAP1 DUP2 ADD PUSH1 0x40 MSTORE DUP1 SWAP3 SWAP2 SWAP1 DUP2 DUP2 MSTORE PUSH1 0x20 ADD DUP3 DUP1 SLOAD PUSH2 0x140 SWAP1 PUSH2 0x707 JUMP JUMPDEST DUP1 ISZERO PUSH2 0x18B JUMPI DUP1 PUSH1 0x1F LT PUSH2 0x162 JUMPI PUSH2 0x100 DUP1 DUP4 SLOAD DIV MUL DUP4 MSTORE SWAP2 PUSH1 0x20 ADD SWAP2 PUSH2 0x18B JUMP JUMPDEST DUP3 ADD SWAP2 SWAP1 PUSH0 MSTORE PUSH1 0x20 PUSH0 KECCAK256 SWAP1 JUMPDEST DUP2 SLOAD DUP2 MSTORE SWAP1 PUSH1 0x1 ADD SWAP1 PUSH1 0x20 ADD DUP1 DUP4 GT PUSH2 0x16E JUMPI DUP3 SWAP1 SUB PUSH1 0x1F AND DUP3 ADD SWAP2 JUMPDEST POP POP POP POP POP SWAP1 DUP1 PUSH1 0x1 ADD PUSH0 SWAP1 SLOAD SWAP1 PUSH2 0x100 EXP SWAP1 DIV PUSH1 0xFF AND SWAP1 POP DUP3 JUMP JUMPDEST PUSH2 0x1AF PUSH2 0x3AB JUMP JUMPDEST PUSH0 DUP3 DUP2 SLOAD DUP2 LT PUSH2 0x1C2 JUMPI PUSH2 0x1C1 PUSH2 0x737 JUMP JUMPDEST JUMPDEST SWAP1 PUSH0 MSTORE PUSH1 0x20 PUSH0 KECCAK256 SWAP1 PUSH1 0x2 MUL ADD PUSH1 0x40 MLOAD DUP1 PUSH1 0x40 ADD PUSH1 0x40 MSTORE SWAP1 DUP2 PUSH0 DUP3 ADD DUP1 SLOAD PUSH2 0x1E8 SWAP1 PUSH2 0x707 JUMP JUMPDEST DUP1 PUSH1 0x1F ADD PUSH1 0x20 DUP1 SWAP2 DIV MUL PUSH1 0x20 ADD PUSH1 0x40 MLOAD SWAP1 DUP2 ADD PUSH1 0x40 MSTORE DUP1 SWAP3 SWAP2 SWAP1 DUP2 DUP2 MSTORE PUSH1 0x20 ADD DUP3 DUP1 SLOAD PUSH2 0x214 SWAP1 PUSH2 0x707 JUMP JUMPDEST DUP1 ISZERO PUSH2 0x25F JUMPI DUP1 PUSH1 0x1F LT PUSH2 0x236 JUMPI PUSH2 0x100 DUP1 DUP4 SLOAD DIV MUL DUP4 MSTORE SWAP2 PUSH1 0x20 ADD SWAP2 PUSH2 0x25F JUMP JUMPDEST DUP3 ADD SWAP2 SWAP1 PUSH0 MSTORE PUSH1 0x20 PUSH0 KECCAK256 SWAP1 JUMPDEST DUP2 SLOAD DUP2 MSTORE SWAP1 PUSH1 0x1 ADD SWAP1 PUSH1 0x20 ADD DUP1 DUP4 GT PUSH2 0x242 JUMPI DUP3 SWAP1 SUB PUSH1 0x1F AND DUP3 ADD SWAP2 JUMPDEST POP POP POP POP POP DUP2 MSTORE PUSH1 0x20 ADD PUSH1 0x1 DUP3 ADD PUSH0 SWAP1 SLOAD SWAP1 PUSH2 0x100 EXP SWAP1 DIV PUSH1 0xFF AND ISZERO ISZERO ISZERO ISZERO DUP2 MSTORE POP POP SWAP1 POP SWAP2 SWAP1 POP JUMP JUMPDEST PUSH0 PUSH1 0x40 MLOAD DUP1 PUSH1 0x40 ADD PUSH1 0x40 MSTORE DUP1 DUP6 DUP6 DUP1 DUP1 PUSH1 0x1F ADD PUSH1 0x20 DUP1 SWAP2 DIV MUL PUSH1 0x20 ADD PUSH1 0x40 MLOAD SWAP1 DUP2 ADD PUSH1 0x40 MSTORE DUP1 SWAP4 SWAP3 SWAP2 SWAP1 DUP2 DUP2 MSTORE PUSH1 0x20 ADD DUP4 DUP4 DUP1 DUP3 DUP5 CALLDATACOPY PUSH0 DUP2 DUP5 ADD MSTORE PUSH1 0x1F NOT PUSH1 0x1F DUP3 ADD AND SWAP1 POP DUP1 DUP4 ADD SWAP3 POP POP POP POP POP POP POP DUP2 MSTORE PUSH1 0x20 ADD DUP4 ISZERO ISZERO DUP2 MSTORE POP SWAP1 DUP1 PUSH1 0x1 DUP2 SLOAD ADD DUP1 DUP3 SSTORE DUP1 SWAP2 POP POP PUSH1 0x1 SWAP1 SUB SWAP1 PUSH0 MSTORE PUSH1 0x20 PUSH0 KECCAK256 SWAP1 PUSH1 0x2 MUL ADD PUSH0 SWAP1 SWAP2 SWAP1 SWAP2 SWAP1 SWAP2 POP PUSH0 DUP3 ADD MLOAD DUP2 PUSH0 ADD SWAP1 DUP2 PUSH2 0x31D SWAP2 SWAP1 PUSH2 0x92E JUMP JUMPDEST POP PUSH1 0x20 DUP3 ADD MLOAD DUP2 PUSH1 0x1 ADD PUSH0 PUSH2 0x100 EXP DUP2 SLOAD DUP2 PUSH1 0xFF MUL NOT AND SWAP1 DUP4 ISZERO ISZERO MUL OR SWAP1 SSTORE POP POP POP POP POP POP JUMP JUMPDEST PUSH0 DUP1 DUP5 DUP2 SLOAD DUP2 LT PUSH2 0x358 JUMPI PUSH2 0x357 PUSH2 0x737 JUMP JUMPDEST JUMPDEST SWAP1 PUSH0 MSTORE PUSH1 0x20 PUSH0 KECCAK256 SWAP1 PUSH1 0x2 MUL ADD SWAP1 POP DUP1 PUSH1 0x1 ADD PUSH0 SWAP1 SLOAD SWAP1 PUSH2 0x100 EXP SWAP1 DIV PUSH1 0xFF AND ISZERO DUP2 PUSH1 0x1 ADD PUSH0 PUSH2 0x100 EXP DUP2 SLOAD DUP2 PUSH1 0xFF MUL NOT AND SWAP1 DUP4 ISZERO ISZERO MUL OR SWAP1 SSTORE POP DUP3 DUP3 DUP3 PUSH0 ADD SWAP2 DUP3 PUSH2 0x3A4 SWAP3 SWAP2 SWAP1 PUSH2 0xA07 JUMP JUMPDEST POP POP POP POP POP JUMP JUMPDEST PUSH1 0x40 MLOAD DUP1 PUSH1 0x40 ADD PUSH1 0x40 MSTORE DUP1 PUSH1 0x60 DUP2 MSTORE PUSH1 0x20 ADD PUSH0 ISZERO ISZERO DUP2 MSTORE POP SWAP1 JUMP JUMPDEST PUSH0 DUP1 REVERT JUMPDEST PUSH0 DUP1 REVERT JUMPDEST PUSH0 DUP2 SWAP1 POP SWAP2 SWAP1 POP JUMP JUMPDEST PUSH2 0x3E0 DUP2 PUSH2 0x3CE JUMP JUMPDEST DUP2 EQ PUSH2 0x3EA JUMPI PUSH0 DUP1 REVERT JUMPDEST POP JUMP JUMPDEST PUSH0 DUP2 CALLDATALOAD SWAP1 POP PUSH2 0x3FB DUP2 PUSH2 0x3D7 JUMP JUMPDEST SWAP3 SWAP2 POP POP JUMP JUMPDEST PUSH0 PUSH1 0x20 DUP3 DUP5 SUB SLT ISZERO PUSH2 0x416 JUMPI PUSH2 0x415 PUSH2 0x3C6 JUMP JUMPDEST JUMPDEST PUSH0 PUSH2 0x423 DUP5 DUP3 DUP6 ADD PUSH2 0x3ED JUMP JUMPDEST SWAP2 POP POP SWAP3 SWAP2 POP POP JUMP JUMPDEST PUSH0 DUP2 MLOAD SWAP1 POP SWAP2 SWAP1 POP JUMP JUMPDEST PUSH0 DUP3 DUP3 MSTORE PUSH1 0x20 DUP3 ADD SWAP1 POP SWAP3 SWAP2 POP POP JUMP JUMPDEST DUP3 DUP2 DUP4 MCOPY PUSH0 DUP4 DUP4 ADD MSTORE POP POP POP JUMP JUMPDEST PUSH0 PUSH1 0x1F NOT PUSH1 0x1F DUP4 ADD AND SWAP1 POP SWAP2 SWAP1 POP JUMP JUMPDEST PUSH0 PUSH2 0x46E DUP3 PUSH2 0x42C JUMP JUMPDEST PUSH2 0x478 DUP2 DUP6 PUSH2 0x436 JUMP JUMPDEST SWAP4 POP PUSH2 0x488 DUP2 DUP6 PUSH1 0x20 DUP7 ADD PUSH2 0x446 JUMP JUMPDEST PUSH2 0x491 DUP2 PUSH2 0x454 JUMP JUMPDEST DUP5 ADD SWAP2 POP POP SWAP3 SWAP2 POP POP JUMP JUMPDEST PUSH0 DUP2 ISZERO ISZERO SWAP1 POP SWAP2 SWAP1 POP JUMP JUMPDEST PUSH2 0x4B0 DUP2 PUSH2 0x49C JUMP JUMPDEST DUP3 MSTORE POP POP JUMP JUMPDEST PUSH0 PUSH1 0x40 DUP3 ADD SWAP1 POP DUP2 DUP2 SUB PUSH0 DUP4 ADD MSTORE PUSH2 0x4CE DUP2 DUP6 PUSH2 0x464 JUMP JUMPDEST SWAP1 POP PUSH2 0x4DD PUSH1 0x20 DUP4 ADD DUP5 PUSH2 0x4A7 JUMP JUMPDEST SWAP4 SWAP3 POP POP POP JUMP JUMPDEST PUSH0 DUP3 DUP3 MSTORE PUSH1 0x20 DUP3 ADD SWAP1 POP SWAP3 SWAP2 POP POP JUMP JUMPDEST PUSH0 PUSH2 0x4FE DUP3 PUSH2 0x42C JUMP JUMPDEST PUSH2 0x508 DUP2 DUP6 PUSH2 0x4E4 JUMP JUMPDEST SWAP4 POP PUSH2 0x518 DUP2 DUP6 PUSH1 0x20 DUP7 ADD PUSH2 0x446 JUMP JUMPDEST PUSH2 0x521 DUP2 PUSH2 0x454 JUMP JUMPDEST DUP5 ADD SWAP2 POP POP SWAP3 SWAP2 POP POP JUMP JUMPDEST PUSH2 0x535 DUP2 PUSH2 0x49C JUMP JUMPDEST DUP3 MSTORE POP POP JUMP JUMPDEST PUSH0 PUSH1 0x40 DUP4 ADD PUSH0 DUP4 ADD MLOAD DUP5 DUP3 SUB PUSH0 DUP7 ADD MSTORE PUSH2 0x555 DUP3 DUP3 PUSH2 0x4F4 JUMP JUMPDEST SWAP2 POP POP PUSH1 0x20 DUP4 ADD MLOAD PUSH2 0x56A PUSH1 0x20 DUP7 ADD DUP3 PUSH2 0x52C JUMP JUMPDEST POP DUP1 SWAP2 POP POP SWAP3 SWAP2 POP POP JUMP JUMPDEST PUSH0 PUSH1 0x20 DUP3 ADD SWAP1 POP DUP2 DUP2 SUB PUSH0 DUP4 ADD MSTORE PUSH2 0x58D DUP2 DUP5 PUSH2 0x53B JUMP JUMPDEST SWAP1 POP SWAP3 SWAP2 POP POP JUMP JUMPDEST PUSH0 DUP1 REVERT JUMPDEST PUSH0 DUP1 REVERT JUMPDEST PUSH0 DUP1 REVERT JUMPDEST PUSH0 DUP1 DUP4 PUSH1 0x1F DUP5 ADD SLT PUSH2 0x5B6 JUMPI PUSH2 0x5B5 PUSH2 0x595 JUMP JUMPDEST JUMPDEST DUP3 CALLDATALOAD SWAP1 POP PUSH8 0xFFFFFFFFFFFFFFFF DUP2 GT ISZERO PUSH2 0x5D3 JUMPI PUSH2 0x5D2 PUSH2 0x599 JUMP JUMPDEST JUMPDEST PUSH1 0x20 DUP4 ADD SWAP2 POP DUP4 PUSH1 0x1 DUP3 MUL DUP4 ADD GT ISZERO PUSH2 0x5EF JUMPI PUSH2 0x5EE PUSH2 0x59D JUMP JUMPDEST JUMPDEST SWAP3 POP SWAP3 SWAP1 POP JUMP JUMPDEST PUSH2 0x5FF DUP2 PUSH2 0x49C JUMP JUMPDEST DUP2 EQ PUSH2 0x609 JUMPI PUSH0 DUP1 REVERT JUMPDEST POP JUMP JUMPDEST PUSH0 DUP2 CALLDATALOAD SWAP1 POP PUSH2 0x61A DUP2 PUSH2 0x5F6 JUMP JUMPDEST SWAP3 SWAP2 POP POP JUMP JUMPDEST PUSH0 DUP1 PUSH0 PUSH1 0x40 DUP5 DUP7 SUB SLT ISZERO PUSH2 0x637 JUMPI PUSH2 0x636 PUSH2 0x3C6 JUMP JUMPDEST JUMPDEST PUSH0 DUP5 ADD CALLDATALOAD PUSH8 0xFFFFFFFFFFFFFFFF DUP2 GT ISZERO PUSH2 0x654 JUMPI PUSH2 0x653 PUSH2 0x3CA JUMP JUMPDEST JUMPDEST PUSH2 0x660 DUP7 DUP3 DUP8 ADD PUSH2 0x5A1 JUMP JUMPDEST SWAP4 POP SWAP4 POP POP PUSH1 0x20 PUSH2 0x673 DUP7 DUP3 DUP8 ADD PUSH2 0x60C JUMP JUMPDEST SWAP2 POP POP SWAP3 POP SWAP3 POP SWAP3 JUMP JUMPDEST PUSH0 DUP1 PUSH0 PUSH1 0x40 DUP5 DUP7 SUB SLT ISZERO PUSH2 0x694 JUMPI PUSH2 0x693 PUSH2 0x3C6 JUMP JUMPDEST JUMPDEST PUSH0 PUSH2 0x6A1 DUP7 DUP3 DUP8 ADD PUSH2 0x3ED JUMP JUMPDEST SWAP4 POP POP PUSH1 0x20 DUP5 ADD CALLDATALOAD PUSH8 0xFFFFFFFFFFFFFFFF DUP2 GT ISZERO PUSH2 0x6C2 JUMPI PUSH2 0x6C1 PUSH2 0x3CA JUMP JUMPDEST JUMPDEST PUSH2 0x6CE DUP7 DUP3 DUP8 ADD PUSH2 0x5A1 JUMP JUMPDEST SWAP3 POP SWAP3 POP POP SWAP3 POP SWAP3 POP SWAP3 JUMP JUMPDEST PUSH32 0x4E487B7100000000000000000000000000000000000000000000000000000000 PUSH0 MSTORE PUSH1 0x22 PUSH1 0x4 MSTORE PUSH1 0x24 PUSH0 REVERT JUMPDEST PUSH0 PUSH1 0x2 DUP3 DIV SWAP1 POP PUSH1 0x1 DUP3 AND DUP1 PUSH2 0x71E JUMPI PUSH1 0x7F DUP3 AND SWAP2 POP JUMPDEST PUSH1 0x20 DUP3 LT DUP2 SUB PUSH2 0x731 JUMPI PUSH2 0x730 PUSH2 0x6DA JUMP JUMPDEST JUMPDEST POP SWAP2 SWAP1 POP JUMP JUMPDEST PUSH32 0x4E487B7100000000000000000000000000000000000000000000000000000000 PUSH0 MSTORE PUSH1 0x32 PUSH1 0x4 MSTORE PUSH1 0x24 PUSH0 REVERT JUMPDEST PUSH32 0x4E487B7100000000000000000000000000000000000000000000000000000000 PUSH0 MSTORE PUSH1 0x41 PUSH1 0x4 MSTORE PUSH1 0x24 PUSH0 REVERT JUMPDEST PUSH0 DUP2 SWAP1 POP DUP2 PUSH0 MSTORE PUSH1 0x20 PUSH0 KECCAK256 SWAP1 POP SWAP2 SWAP1 POP JUMP JUMPDEST PUSH0 PUSH1 0x20 PUSH1 0x1F DUP4 ADD DIV SWAP1 POP SWAP2 SWAP1 POP JUMP JUMPDEST PUSH0 DUP3 DUP3 SHL SWAP1 POP SWAP3 SWAP2 POP POP JUMP JUMPDEST PUSH0 PUSH1 0x8 DUP4 MUL PUSH2 0x7ED PUSH32 0xFFFFFFFFFFFFFFFFFFFFFFFFFFFFFFFFFFFFFFFFFFFFFFFFFFFFFFFFFFFFFFFF DUP3 PUSH2 0x7B2 JUMP JUMPDEST PUSH2 0x7F7 DUP7 DUP4 PUSH2 0x7B2 JUMP JUMPDEST SWAP6 POP DUP1 NOT DUP5 AND SWAP4 POP DUP1 DUP7 AND DUP5 OR SWAP3 POP POP POP SWAP4 SWAP3 POP POP POP JUMP JUMPDEST PUSH0 DUP2 SWAP1 POP SWAP2 SWAP1 POP JUMP JUMPDEST PUSH0 PUSH2 0x832 PUSH2 0x82D PUSH2 0x828 DUP5 PUSH2 0x3CE JUMP JUMPDEST PUSH2 0x80F JUMP JUMPDEST PUSH2 0x3CE JUMP JUMPDEST SWAP1 POP SWAP2 SWAP1 POP JUMP JUMPDEST PUSH0 DUP2 SWAP1 POP SWAP2 SWAP1 POP JUMP JUMPDEST PUSH2 0x84B DUP4 PUSH2 0x818 JUMP JUMPDEST PUSH2 0x85F PUSH2 0x857 DUP3 PUSH2 0x839 JUMP JUMPDEST DUP5 DUP5 SLOAD PUSH2 0x7BE JUMP JUMPDEST DUP3 SSTORE POP POP POP POP JUMP JUMPDEST PUSH0 SWAP1 JUMP JUMPDEST PUSH2 0x873 PUSH2 0x867 JUMP JUMPDEST PUSH2 0x87E DUP2 DUP5 DUP5 PUSH2 0x842 JUMP JUMPDEST POP POP POP JUMP JUMPDEST JUMPDEST DUP2 DUP2 LT ISZERO PUSH2 0x8A1 JUMPI PUSH2 0x896 PUSH0 DUP3 PUSH2 0x86B JUMP JUMPDEST PUSH1 0x1 DUP2 ADD SWAP1 POP PUSH2 0x884 JUMP JUMPDEST POP POP JUMP JUMPDEST PUSH1 0x1F DUP3 GT ISZERO PUSH2 0x8E6 JUMPI PUSH2 0x8B7 DUP2 PUSH2 0x791 JUMP JUMPDEST PUSH2 0x8C0 DUP5 PUSH2 0x7A3 JUMP JUMPDEST DUP2 ADD PUSH1 0x20 DUP6 LT ISZERO PUSH2 0x8CF JUMPI DUP2 SWAP1 POP JUMPDEST PUSH2 0x8E3 PUSH2 0x8DB DUP6 PUSH2 0x7A3 JUMP JUMPDEST DUP4 ADD DUP3 PUSH2 0x883 JUMP JUMPDEST POP POP JUMPDEST POP POP POP JUMP JUMPDEST PUSH0 DUP3 DUP3 SHR SWAP1 POP SWAP3 SWAP2 POP POP JUMP JUMPDEST PUSH0 PUSH2 0x906 PUSH0 NOT DUP5 PUSH1 0x8 MUL PUSH2 0x8EB JUMP JUMPDEST NOT DUP1 DUP4 AND SWAP2 POP POP SWAP3 SWAP2 POP POP JUMP JUMPDEST PUSH0 PUSH2 0x91E DUP4 DUP4 PUSH2 0x8F7 JUMP JUMPDEST SWAP2 POP DUP3 PUSH1 0x2 MUL DUP3 OR SWAP1 POP SWAP3 SWAP2 POP POP JUMP JUMPDEST PUSH2 0x937 DUP3 PUSH2 0x42C JUMP JUMPDEST PUSH8 0xFFFFFFFFFFFFFFFF DUP2 GT ISZERO PUSH2 0x950 JUMPI PUSH2 0x94F PUSH2 0x764 JUMP JUMPDEST JUMPDEST PUSH2 0x95A DUP3 SLOAD PUSH2 0x707 JUMP JUMPDEST PUSH2 0x965 DUP3 DUP3 DUP6 PUSH2 0x8A5 JUMP JUMPDEST PUSH0 PUSH1 0x20 SWAP1 POP PUSH1 0x1F DUP4 GT PUSH1 0x1 DUP2 EQ PUSH2 0x996 JUMPI PUSH0 DUP5 ISZERO PUSH2 0x984 JUMPI DUP3 DUP8 ADD MLOAD SWAP1 POP JUMPDEST PUSH2 0x98E DUP6 DUP3 PUSH2 0x913 JUMP JUMPDEST DUP7 SSTORE POP PUSH2 0x9F5 JUMP JUMPDEST PUSH1 0x1F NOT DUP5 AND PUSH2 0x9A4 DUP7 PUSH2 0x791 JUMP JUMPDEST PUSH0 JUMPDEST DUP3 DUP2 LT ISZERO PUSH2 0x9CB JUMPI DUP5 DUP10 ADD MLOAD DUP3 SSTORE PUSH1 0x1 DUP3 ADD SWAP2 POP PUSH1 0x20 DUP6 ADD SWAP5 POP PUSH1 0x20 DUP2 ADD SWAP1 POP PUSH2 0x9A6 JUMP JUMPDEST DUP7 DUP4 LT ISZERO PUSH2 0x9E8 JUMPI DUP5 DUP10 ADD MLOAD PUSH2 0x9E4 PUSH1 0x1F DUP10 AND DUP3 PUSH2 0x8F7 JUMP JUMPDEST DUP4 SSTORE POP JUMPDEST PUSH1 0x1 PUSH1 0x2 DUP9 MUL ADD DUP9 SSTORE POP POP POP JUMPDEST POP POP POP POP POP POP JUMP JUMPDEST PUSH0 DUP3 SWAP1 POP SWAP3 SWAP2 POP POP JUMP JUMPDEST PUSH2 0xA11 DUP4 DUP4 PUSH2 0x9FD JUMP JUMPDEST PUSH8 0xFFFFFFFFFFFFFFFF DUP2 GT ISZERO PUSH2 0xA2A JUMPI PUSH2 0xA29 PUSH2 0x764 JUMP JUMPDEST JUMPDEST PUSH2 0xA34 DUP3 SLOAD PUSH2 0x707 JUMP JUMPDEST PUSH2 0xA3F DUP3 DUP3 DUP6 PUSH2 0x8A5 JUMP JUMPDEST PUSH0 PUSH1 0x1F DUP4 GT PUSH1 0x1 DUP2 EQ PUSH2 0xA6C JUMPI PUSH0 DUP5 ISZERO PUSH2 0xA5A JUMPI DUP3 DUP8 ADD CALLDATALOAD SWAP1 POP JUMPDEST PUSH2 0xA64 DUP6 DUP3 PUSH2 0x913 JUMP JUMPDEST DUP7 SSTORE POP PUSH2 0xACB JUMP JUMPDEST PUSH1 0x1F NOT DUP5 AND PUSH2 0xA7A DUP7 PUSH2 0x791 JUMP JUMPDEST PUSH0 JUMPDEST DUP3 DUP2 LT ISZERO PUSH2 0xAA1 JUMPI DUP5 DUP10 ADD CALLDATALOAD DUP3 SSTORE PUSH1 0x1 DUP3 ADD SWAP2 POP PUSH1 0x20 DUP6 ADD SWAP5 POP PUSH1 0x20 DUP2 ADD SWAP1 POP PUSH2 0xA7C JUMP JUMPDEST DUP7 DUP4 LT ISZERO PUSH2 0xABE JUMPI DUP5 DUP10 ADD CALLDATALOAD PUSH2 0xABA PUSH1 0x1F DUP10 AND DUP3 PUSH2 0x8F7 JUMP JUMPDEST DUP4 SSTORE POP JUMPDEST PUSH1 0x1 PUSH1 0x2 DUP9 MUL ADD DUP9 SSTORE POP POP POP JUMPDEST POP POP POP POP POP POP POP JUMP INVALID LOG2 PUSH5 0x6970667358 0x22 SLT KECCAK256 PUSH10 0x4649F49D0CB63E92B18C SWAP6 OR DUP13 MSTORE8 PUSH8 0xE9CCCD9737000FF3 DUP8 0xED 0xD1 REVERT 0x4B 0xD6 RETURNDATASIZE 0xEF PUSH5 0x736F6C6343 STOP ADDMOD BYTE STOP CALLER "
				},
				"gasEstimates": {
					"creation": {
						"codeDepositCost": "565200",
						"executionCost": "598",
						"totalCost": "565798"
					},
					"external": {
						"create(string,bool)": "infinite",
						"get(uint256)": "infinite",
						"objList(uint256)": "infinite",
						"update(uint256,string)": "infinite"
					}
				},
				"methodIdentifiers": {
					"create(string,bool)": "cc10e401",
					"get(uint256)": "9507d39a",
					"objList(uint256)": "208df5a3",
					"update(uint256,string)": "f745630f"
				}
			},
			"storageLayout": {
				"storage": [
					{
						"astId": 10,
						"contract": "contracts/Structs.sol:Structs",
						"label": "objList",
						"offset": 0,
						"slot": "0",
						"type": "t_array(t_struct(Obj)6_storage)dyn_storage"
					}
				],
				"types": {
					"t_array(t_struct(Obj)6_storage)dyn_storage": {
						"base": "t_struct(Obj)6_storage",
						"encoding": "dynamic_array",
						"label": "struct Structs.Obj[]",
						"numberOfBytes": "32"
					},
					"t_bool": {
						"encoding": "inplace",
						"label": "bool",
						"numberOfBytes": "1"
					},
					"t_string_storage": {
						"encoding": "bytes",
						"label": "string",
						"numberOfBytes": "32"
					},
					"t_struct(Obj)6_storage": {
						"encoding": "inplace",
						"label": "struct Structs.Obj",
						"members": [
							{
								"astId": 3,
								"contract": "contracts/Structs.sol:Structs",
								"label": "text",
								"offset": 0,
								"slot": "0",
								"type": "t_string_storage"
							},
							{
								"astId": 5,
								"contract": "contracts/Structs.sol:Structs",
								"label": "completed",
								"offset": 0,
								"slot": "1",
								"type": "t_bool"
							}
						],
						"numberOfBytes": "64"
					}
				}
			},
			"userdoc": {
				"kind": "user",
				"methods": {},
				"version": 1
			}
		}
	}
}