{
	"contracts/Loop.sol": {
		"Loop": {
			"abi": [
				{
					"inputs": [],
					"name": "loop",
					"outputs": [],
					"stateMutability": "nonpayable",
					"type": "function"
				},
				{
					"inputs": [],
					"name": "showI",
					"outputs": [
						{
							"internalType": "uint256",
							"name": "",
							"type": "uint256"
						}
					],
					"stateMutability": "view",
					"type": "function"
				}
			],
			"devdoc": {
				"kind": "dev",
				"methods": {},
				"version": 1
			},
			"evm": {
				"assembly": "    /* \"contracts/Loop.sol\":66:464  contract Loop{... */\n  mstore(0x40, 0x80)\n  callvalue\n  dup1\n  iszero\n  tag_1\n  jumpi\n  0x00\n  dup1\n  revert\ntag_1:\n  pop\n  dataSize(sub_0)\n  dup1\n  dataOffset(sub_0)\n  0x00\n  codecopy\n  0x00\n  return\nstop\n\nsub_0: assembly {\n        /* \"contracts/Loop.sol\":66:464  contract Loop{... */\n      mstore(0x40, 0x80)\n      callvalue\n      dup1\n      iszero\n      tag_1\n      jumpi\n      0x00\n      dup1\n      revert\n    tag_1:\n      pop\n      jumpi(tag_2, lt(calldatasize, 0x04))\n      shr(0xe0, calldataload(0x00))\n      dup1\n      0x3a6824ad\n      eq\n      tag_3\n      jumpi\n      dup1\n      0xa92100cb\n      eq\n      tag_4\n      jumpi\n    tag_2:\n      0x00\n      dup1\n      revert\n        /* \"contracts/Loop.sol\":86:104  uint public  showI */\n    tag_3:\n      tag_5\n      tag_6\n      jump\t// in\n    tag_5:\n      mload(0x40)\n      tag_7\n      swap2\n      swap1\n      tag_8\n      jump\t// in\n    tag_7:\n      mload(0x40)\n      dup1\n      swap2\n      sub\n      swap1\n      return\n        /* \"contracts/Loop.sol\":111:461  function loop() public {... */\n    tag_4:\n      tag_9\n      tag_10\n      jump\t// in\n    tag_9:\n      stop\n        /* \"contracts/Loop.sol\":86:104  uint public  showI */\n    tag_6:\n      sload(0x00)\n      dup2\n      jump\t// out\n        /* \"contracts/Loop.sol\":111:461  function loop() public {... */\n    tag_10:\n        /* \"contracts/Loop.sol\":145:151  uint i */\n      0x00\n        /* \"contracts/Loop.sol\":165:454  for(i;i<10;i++){... */\n    tag_12:\n        /* \"contracts/Loop.sol\":173:175  10 */\n      0x0a\n        /* \"contracts/Loop.sol\":171:172  i */\n      dup2\n        /* \"contracts/Loop.sol\":171:175  i<10 */\n      lt\n        /* \"contracts/Loop.sol\":165:454  for(i;i<10;i++){... */\n      iszero\n      tag_13\n      jumpi\n        /* \"contracts/Loop.sol\":207:208  3 */\n      0x03\n        /* \"contracts/Loop.sol\":202:203  i */\n      dup2\n        /* \"contracts/Loop.sol\":202:208  i == 3 */\n      sub\n        /* \"contracts/Loop.sol\":198:310  if (i == 3) {... */\n      iszero\n        /* \"contracts/Loop.sol\":286:294  continue */\n      tag_14\n        /* \"contracts/Loop.sol\":198:310  if (i == 3) {... */\n      jumpi\n        /* \"contracts/Loop.sol\":333:334  5 */\n      0x05\n        /* \"contracts/Loop.sol\":328:329  i */\n      dup2\n        /* \"contracts/Loop.sol\":328:334  i == 5 */\n      sub\n        /* \"contracts/Loop.sol\":324:443  if (i == 5) {... */\n      tag_16\n      jumpi\n        /* \"contracts/Loop.sol\":402:403  i */\n      dup1\n        /* \"contracts/Loop.sol\":396:401  showI */\n      0x00\n        /* \"contracts/Loop.sol\":396:403  showI=i */\n      dup2\n      swap1\n      sstore\n      pop\n        /* \"contracts/Loop.sol\":422:427  break */\n      jump(tag_13)\n        /* \"contracts/Loop.sol\":324:443  if (i == 5) {... */\n    tag_16:\n        /* \"contracts/Loop.sol\":165:454  for(i;i<10;i++){... */\n    tag_14:\n        /* \"contracts/Loop.sol\":176:179  i++ */\n      dup1\n      dup1\n      0x01\n      add\n      swap2\n      pop\n      pop\n        /* \"contracts/Loop.sol\":165:454  for(i;i<10;i++){... */\n      jump(tag_12)\n    tag_13:\n        /* \"contracts/Loop.sol\":134:461  {... */\n      pop\n        /* \"contracts/Loop.sol\":111:461  function loop() public {... */\n      jump\t// out\n        /* \"#utility.yul\":7:84   */\n    tag_17:\n        /* \"#utility.yul\":44:51   */\n      0x00\n        /* \"#utility.yul\":73:78   */\n      dup2\n        /* \"#utility.yul\":62:78   */\n      swap1\n      pop\n        /* \"#utility.yul\":7:84   */\n      swap2\n      swap1\n      pop\n      jump\t// out\n        /* \"#utility.yul\":90:208   */\n    tag_18:\n        /* \"#utility.yul\":177:201   */\n      tag_22\n        /* \"#utility.yul\":195:200   */\n      dup2\n        /* \"#utility.yul\":177:201   */\n      tag_17\n      jump\t// in\n    tag_22:\n        /* \"#utility.yul\":172:175   */\n      dup3\n        /* \"#utility.yul\":165:202   */\n      mstore\n        /* \"#utility.yul\":90:208   */\n      pop\n      pop\n      jump\t// out\n        /* \"#utility.yul\":214:436   */\n    tag_8:\n        /* \"#utility.yul\":307:311   */\n      0x00\n        /* \"#utility.yul\":345:347   */\n      0x20\n        /* \"#utility.yul\":334:343   */\n      dup3\n        /* \"#utility.yul\":330:348   */\n      add\n        /* \"#utility.yul\":322:348   */\n      swap1\n      pop\n        /* \"#utility.yul\":358:429   */\n      tag_24\n        /* \"#utility.yul\":426:427   */\n      0x00\n        /* \"#utility.yul\":415:424   */\n      dup4\n        /* \"#utility.yul\":411:428   */\n      add\n        /* \"#utility.yul\":402:408   */\n      dup5\n        /* \"#utility.yul\":358:429   */\n      tag_18\n      jump\t// in\n    tag_24:\n        /* \"#utility.yul\":214:436   */\n      swap3\n      swap2\n      pop\n      pop\n      jump\t// out\n\n    auxdata: 0xa2646970667358221220d82d75f4492551edd2f8c812778833cb3175461a0a1baae34f9b74d96ec18d3a64736f6c634300081a0033\n}\n",
				"bytecode": {
					"linkReferences": {},
					"object": "6080604052348015600e575f80fd5b5060f18061001b5f395ff3fe6080604052348015600e575f80fd5b50600436106030575f3560e01c80633a6824ad146034578063a92100cb14604e575b5f80fd5b603a6056565b6040516045919060a4565b60405180910390f35b6054605b565b005b5f5481565b5f5b600a811015608b576003810315607f5760058103607e57805f81905550608b565b5b8080600101915050605d565b50565b5f819050919050565b609e81608e565b82525050565b5f60208201905060b55f8301846097565b9291505056fea2646970667358221220d82d75f4492551edd2f8c812778833cb3175461a0a1baae34f9b74d96ec18d3a64736f6c634300081a0033",
					"opcodes": "PUSH1 0x80 PUSH1 0x40 MSTORE CALLVALUE DUP1 ISZERO PUSH1 0xE JUMPI PUSH0 DUP1 REVERT JUMPDEST POP PUSH1 0xF1 DUP1 PUSH2 0x1B PUSH0 CODECOPY PUSH0 RETURN INVALID PUSH1 0x80 PUSH1 0x40 MSTORE CALLVALUE DUP1 ISZERO PUSH1 0xE JUMPI PUSH0 DUP1 REVERT JUMPDEST POP PUSH1 0x4 CALLDATASIZE LT PUSH1 0x30 JUMPI PUSH0 CALLDATALOAD PUSH1 0xE0 SHR DUP1 PUSH4 0x3A6824AD EQ PUSH1 0x34 JUMPI DUP1 PUSH4 0xA92100CB EQ PUSH1 0x4E JUMPI JUMPDEST PUSH0 DUP1 REVERT JUMPDEST PUSH1 0x3A PUSH1 0x56 JUMP JUMPDEST PUSH1 0x40 MLOAD PUSH1 0x45 SWAP2 SWAP1 PUSH1 0xA4 JUMP JUMPDEST PUSH1 0x40 MLOAD DUP1 SWAP2 SUB SWAP1 RETURN JUMPDEST PUSH1 0x54 PUSH1 0x5B JUMP JUMPDEST STOP JUMPDEST PUSH0 SLOAD DUP2 JUMP JUMPDEST PUSH0 JUMPDEST PUSH1 0xA DUP2 LT ISZERO PUSH1 0x8B JUMPI PUSH1 0x3 DUP2 SUB ISZERO PUSH1 0x7F JUMPI PUSH1 0x5 DUP2 SUB PUSH1 0x7E JUMPI DUP1 PUSH0 DUP2 SWAP1 SSTORE POP PUSH1 0x8B JUMP JUMPDEST JUMPDEST DUP1 DUP1 PUSH1 0x1 ADD SWAP2 POP POP PUSH1 0x5D JUMP JUMPDEST POP JUMP JUMPDEST PUSH0 DUP2 SWAP1 POP SWAP2 SWAP1 POP JUMP JUMPDEST PUSH1 0x9E DUP2 PUSH1 0x8E JUMP JUMPDEST DUP3 MSTORE POP POP JUMP JUMPDEST PUSH0 PUSH1 0x20 DUP3 ADD SWAP1 POP PUSH1 0xB5 PUSH0 DUP4 ADD DUP5 PUSH1 0x97 JUMP JUMPDEST SWAP3 SWAP2 POP POP JUMP INVALID LOG2 PUSH5 0x6970667358 0x22 SLT KECCAK256 0xD8 0x2D PUSH22 0xF4492551EDD2F8C812778833CB3175461A0A1BAAE34F SWAP12 PUSH21 0xD96EC18D3A64736F6C634300081A00330000000000 "
				},
				"gasEstimates": {
					"creation": {
						"codeDepositCost": "48200",
						"executionCost": "97",
						"totalCost": "48297"
					},
					"external": {
						"loop()": "infinite",
						"showI()": "2402"
					}
				},
				"methodIdentifiers": {
					"loop()": "a92100cb",
					"showI()": "3a6824ad"
				}
			},
			"storageLayout": {
				"storage": [
					{
						"astId": 3,
						"contract": "contracts/Loop.sol:Loop",
						"label": "showI",
						"offset": 0,
						"slot": "0",
						"type": "t_uint256"
					}
				],
				"types": {
					"t_uint256": {
						"encoding": "inplace",
						"label": "uint256",
						"numberOfBytes": "32"
					}
				}
			},
			"userdoc": {
				"kind": "user",
				"methods": {},
				"version": 1
			}
		}
	}
}